:020000040800F2
:100000007007002089010008C30F00087F0E000858
:10001000C10F0008D50200085D11000800000000B3
:10002000000000000000000000000000ED100008CB
:10003000D702000800000000C50F0008EF100008FC
:10004000A3010008A3010008A3010008A301000800
:10005000A3010008A3010008A3010008A3010008F0
:10006000A3010008A3010008A3010008A3010008E0
:10007000A3010008A3010008A3010008A3010008D0
:10008000A3010008A3010008A3010008A3010008C0
:10009000A3010008A3010008A3010008A3010008B0
:1000A000A3010008A3010008A3010008A3010008A0
:1000B000A3010008A3010008A3010008A301000890
:1000C000A3010008A3010008A3010008A301000880
:1000D000A3010008A3010008A3010008A301000870
:1000E000A3010008A3010008A301000800F002F822
:1000F00000F03AF80AA090E8000C82448344AAF188
:100100000107DA4501D100F02FF8AFF2090EBAE885
:100110000F0013F0010F18BFFB1A43F0010318473B
:100120002C2300004C230000103A24BF78C878C16B
:10013000FAD8520724BF30C830C144BF04680C60ED
:10014000704700000023002400250026103A28BF35
:1001500078C1FBD8520728BF30C148BF0B60704739
:100160001FB51FBD10B510BD00F07AF81146FFF79E
:10017000F7FF01F01DF800F098F803B4FFF7F2FF65
:1001800003BC00F0A1F80000094880470948004777
:10019000FEE7FEE7FEE7FEE7FEE7FEE7FEE7FEE737
:1001A000FEE7FEE704480549054A064B7047000094
:1001B0005B110008ED0000087001002070070020AE
:1001C00070030020700300204FF000020429C0F0EB
:1001D000128010F0030C00F01B80CCF1040CBCF179
:1001E000020F18BF00F8012BA8BF20F8022BA1EBCB
:1001F0000C0100F00DB85FEAC17C24BF00F8012BB0
:1002000000F8012B48BF00F8012B70474FF00002A7
:1002100000B5134694469646203922BFA0E80C50FC
:10022000A0E80C50B1F12001BFF4F7AF090728BFD7
:10023000A0E80C5048BF0CC05DF804EB890028BF53
:1002400040F8042B08BF704748BF20F8022B11F07C
:10025000804F18BF00F8012B7047704770477047F8
:10026000754600F02BF8AE4605006946534620F06F
:100270000700854618B020B5FFF794FFBDE8204081
:100280004FF000064FF000074FF000084FF0000B52
:1002900021F00701AC46ACE8C009ACE8C009ACE805
:1002A000C009ACE8C0098D46704710B50446AFF3ED
:1002B00000802046BDE81040FFF75FBF0048704750
:1002C0000C0100207047000001491820ABBEFEE77A
:1002D00026000200FEE7704772B6FEE770B50446DE
:1002E00000F00EF90546601C02D004480078044472
:1002F00000F006F9401BA042FAD370BD00000020B8
:100300002DE9F84F00240023DFF8C4914FF00F08C7
:10031000A9F1040B09F1040AABF1040ED1E00127A5
:10032000A7403A40BA4275D1DFF8A8C14D68A5EBA5
:100330000C0665452BD00DDC032D34D005DC35B320
:10034000012D19D0022D2FD11BE0112D16D0122D09
:100350002AD119E0B6F5881F19D006DCB6F5803F22
:1003600015D0B6F5801F1FD111E0B6F5001F0ED0D5
:10037000B6F5041F18D10AE0CB6815E0CB681B1D49
:1003800012E0CB6808330FE0CB680C330CE08B68CD
:1003900023B1012B04D00823476105E0042303E0C7
:1003A0000823076100E00023FF2A01D8054601E089
:1003B00000F1040502D84FEA840603E0A4F1080620
:1003C0004FEA86062F6808FA06FC27EA0C0703FAAC
:1003D00006F647EA06072F604D68ED0070D53E4DE2
:1003E000AE6946F00106AE61AD6905F00105009504
:1003F0003A4D24F003067719BE68A5072D0F08FAB9
:1004000005FC26EA0C06DFF8D8C0604503D14FF0A2
:10041000000C17E054E0DFF8CCC0604502D14FF08B
:10042000010C0FE0DFF8C0C0604502D14FF0020CB4
:1004300008E0DFF8B8C0604502D14FF0030C01E0DE
:100440004FF0040C0CFA05FC4CEA060CC7F808C087
:100450004D68ED0205D5D9F800501543C9F8005094
:1004600004E0D9F800509543C9F800504D68AD023A
:1004700005D5DAF800501543CAF8005004E0DAF860
:1004800000509543CAF800504D68AD0305D5DBF820
:1004900000501543CBF8005004E0DBF800509543C2
:1004A000CBF800504D68ED0305D5DEF8005015433C
:1004B000CEF8005004E0DEF800509543CEF800502E
:1004C000641C0A6832FA04F57FF429AFBDE8F88F9E
:1004D000080401400000111000100240000001401B
:1004E00000080140000C01400010014000140140D0
:1004F000002A01D0016170470904016170470000C2
:1005000001488068704700000000002002488168B0
:1005100002781144816070470000002010B5074840
:10052000016841F010010160032000F069F80F201C
:1005300000F006F800F026F8002010BD0020024070
:1005400070B504460D4D4FF47A712878B1FBF0F088
:100550000B490968B1FBF0F000F07DFC08B1012007
:1005600070BD102C07D200222146501E00F028F842
:100570006C60002070BD012070BD000000000020F4
:100580000C00002008B50C48816941F0010181612F
:10059000816901F001010091C16941F08051C1619F
:1005A000C06900F0805000900449486820F0E06085
:1005B00040F00070486008BD00100240000001409B
:1005C000F0B40D460D4B1B68C3F30223C3F10704BF
:1005D000042C00D90424191D072901D2002300E0AE
:1005E000DB1E012606FA04F1491E294099409E406F
:1005F000761E16403143F0BC00F0B1BD0CED00E0BA
:1006000000F00701054A10684FF6FF03184040EA62
:100610000120034908431060704700000CED00E022
:100620000000FA052DE9F04704460D46002C17D0CE
:10063000DFF83081D8F8000000F00700A84211D29E
:10064000D8F8000020F007002843C8F80000D8F8C8
:10065000000000F00700A84204D00120BDE8F087A8
:100660000120FBE72068404E810712D5400703D5E3
:10067000706840F4E06070602078000703D570680F
:1006800040F4605070607068A16820F0F00008438A
:1006900070602078C0072CD06068012806D002283E
:1006A00009D0316889070BD40120D7E73168890365
:1006B00006D40120D2E73168890101D40120CDE7B9
:1006C000716821F0030101437160FFF719FF0746CC
:1006D00041F2883906E0FFF713FFC01B484501D9F6
:1006E0000320BBE77068616800F00C00B0EB810F7D
:1006F000F1D1D8F8000000F00700A8420ED9D8F8D0
:10070000000020F007002843C8F80000D8F80000D7
:1007100000F00700A84201D001209FE720784007A1
:1007200005D57068E16820F4E060084370602078C7
:10073000000706D57068216920F4605040EAC100C6
:10074000706000F019F87168084AC1F30311515C38
:10075000C8400749086007480068FFF7F1FE00201D
:100760007CE700000020024000100240A21F0008A9
:100770000C000020040000200E4B59680E4801F0C8
:100780000C02042A11D0082A0FD10C48C1F383426D
:10079000805CC9030AD55968084AC1F34041921EDA
:1007A000515C054A5043B0FBF1F07047044948439F
:1007B000704700000010024000127A00921F0008EB
:1007C00000093D0030B585B00D46002003900220A1
:1007D0000290032004904FF480700190094CA069AE
:1007E00040F00400A061A06900F00400009001A99D
:1007F0000548FFF785FD606820F0E06028436060F1
:1008000005B030BD00100240000801402DE9F84F4E
:100810000446002C0ED02078D94DC0075ED0686801
:10082000C0F3810001280BD06868C0F38100022862
:1008300003D00CE00120BDE8F88F6868C00306D53E
:10084000286880034AD56068A8BB0120F3E7606888
:10085000B0F5803F11D0A8B1B0F5A02F1BD028680B
:1008600020F480302860286820F4802028606068A8
:1008700030B3FFF745FE06461EE0286840F480309E
:100880002860F4E7286820F480302860286820F485
:1008900080202860EBE7286840F4802028602868E2
:1008A00040F480302860E2E7FFF72AFE801B6428CE
:1008B00002D90320BFE711E028688003F4D50DE0DA
:1008C000FFF71EFE064606E0FFF71AFE801B6428AF
:1008D00001D90320AFE728688003F5D42078DFF83A
:1008E000A48280074FF0010A4FF0000945D56868DF
:1008F00010F00C0F07D06868C0F38100022812D1F5
:100900006868C0030FD42868800704D520690128CF
:1009100001D001208FE72868616920F0F80040EAE3
:10092000C100286029E02069B8B1C8F800A0FFF72D
:10093000E7FD064606E0FFF7E3FD801B022801D92C
:10094000032078E728688007F5D52868616920F0DA
:10095000F80040EAC10028600FE0C8F80090FFF7F7
:10096000CFFD064606E0FFF7CBFD801B022801D92C
:10097000032060E728688007F5D42078000726D593
:100980008148A16999B1C0F800A0FFF7B9FD0646FA
:1009900006E0FFF7B5FD801B022801D903204AE7D6
:1009A000686A8007F5D5012000F00EFB0FE0C0F863
:1009B0000090FFF7A5FD064606E0FFF7A1FD801BAE
:1009C000022801D9032036E7686A8007F5D4207829
:1009D000400773D50026E869C00008D4E86940F0F4
:1009E0008050E861E86900F0805000900126DFF84F
:1009F0009CB1DBF80000C00514D4DBF8000040F423
:100A00008070CBF80000FFF77BFD074606E0FFF79C
:100A100077FDC01B642801D903200CE7DBF8000038
:100A2000C005F4D5E068012812D0B0B105281DD06A
:100A3000286A20F001002862286A20F00400286259
:100A4000E06841F2883B28B3FFF75AFD07461DE0F6
:100A5000286A40F001002862F2E7286A20F00100CD
:100A60002862286A20F004002862E9E7286A40F03A
:100A700004002862286A40F001002862E0E7FFF7DE
:100A80003FFDC01B584501D90320D4E6286A8007E2
:100A9000F5D50DE0FFF734FD074606E0FFF730FD22
:100AA000C01B584501D90320C5E6286A8007F5D444
:100AB000012E03D1E86920F08050E861E069A0B31D
:100AC0006968C1F38101022946D0022805D0C8F81F
:100AD0006090FFF715FD04463AE0C8F86090FFF714
:100AE0000FFD064606E0FFF70BFD801B022801D92B
:100AF0000320A0E628688001F5D4206AB0F5803F85
:100B000005D16868A16820F4003008436860D4E922
:100B100008010843696821F4741108436860C8F843
:100B200060A0FFF7EDFC044607E026E0FFF7E8FCD5
:100B3000001B022801D903207DE628688001F5D535
:100B40001BE0FFF7DDFC001B022801D9032072E641
:100B500028688001F5D410E001280CD06868226A6A
:100B600000F48031914204D1616A00F4701088422F
:100B700003D001205FE601205DE600205BE6000077
:100B800000100240000042428004424200700040D7
:100B900070B50446002C09D0606A002540B125617B
:100BA0006561A56294F8510040B10CE0012070BD70
:100BB0006068B0F5827FF4D0E561F2E784F85050C8
:100BC000204600F03FF8022084F8510020680168B8
:100BD00021F040010160A088218900F4827001F4B5
:100BE00004410843A18901F400610843217C01F01C
:100BF00002010843217D01F001010843218B01F42A
:100C000000710843217F01F03801084394F8201057
:100C100001F080010843218D01F40051084321684F
:100C20000860A069042101EA10402168486020683A
:100C3000C16921F40061C1616565012084F851003A
:100C4000002070BDF0B585B0002401940294039497
:100C500004940068184988422CD11848816941F4ED
:100C600080518161816901F480510091816941F075
:100C700004018161806900F00400009080200190EF
:100C800002250295032604960D4F01A93846FFF769
:100C900037FB2020019002950496039501A9384660
:100CA000FFF72EFB402001900294039401A93846DF
:100CB000FFF726FB05B0F0BD0030014000100240F8
:100CC000000801402DE9F84F04468A4617461D46A4
:100CD000FFF716FC064694F85100012802D00220C6
:100CE000BDE8F88FBAF1000F23D0380021D094F876
:100CF000500001281FD04FF0010984F850900320C4
:100D000084F851004FF00008C4F85480C4F830A0B3
:100D1000A786E786C4F83880A4F83C80A4F83E8013
:100D2000C4F84480C4F84080A068B0F5004F04D0F7
:100D30000DE00120D4E70220D2E72068016821F00D
:100D4000400101602068016841F480410160206831
:100D50000168490603D4016841F040010160E06880
:100D6000B0F5006F04D0606888B3012F30D050E038
:100D7000606808B1012F20D1206B21680088C8600D
:100D8000206B801C2063E08E401EE08615E020680A
:100D90008168890709D5216B0988C160206B801C97
:100DA0002063E08E401EE08607E0FFF7A9FB801B72
:100DB000A84201D3681C04D11DB1E08E0028E6D101
:100DC0002AE084F8519084F85080032088E7FFE7F8
:100DD000206B216800780873206B401C2063E08E34
:100DE000401EE08615E020688168890709D5216BDF
:100DF00009780173206B401C2063E08E401EE08662
:100E000007E0FFF77DFB801BA84201D3681C0ED1D1
:100E10006DB1E08E0028E6D132462946204600F02A
:100E2000E5F808B120206065A06830B109E084F8D9
:100E3000519084F85080032052E72068C168806890
:100E4000009084F8519084F85080606D08B10120C2
:100E500046E7002044E710B5401EB0F1807F01D383
:100E6000012010BD4FF0E02460610F21601700F0F9
:100E700076F90020A06107202061002010BDFEE768
:100E80002DE9F04385B00024019402940394049466
:100E90003648816941F010018161816901F01001DA
:100EA0000091816941F020018161816901F0200197
:100EB0000091816941F004018161816901F00401BF
:100EC0000091816941F008018161806900F00800AA
:100ED0000090274F4FF40055002229463846FFF76F
:100EE00007FBDFF89080002208214046FFF700FB57
:100EF000DFF88490002201214846FFF7F9FA012229
:100F0000D1024846FFF7F4FA0195012602960394B0
:100F10000225049501A93846FFF7F2F9082001904F
:100F200002960394049501A94046FFF7E9F940F6BB
:100F30000100019002960394049501A94846FFF729
:100F4000DFF9E80101900295049501A94046FFF7F9
:100F5000D7F9A020019002950320049001A94046F2
:100F6000FFF7CEF905B0BDE8F083000000100240A5
:100F70000010014000080140000C014010B50F486E
:100F80000D4901604FF48271416000218160C160B0
:100F90000222026101224261520282613822C26150
:100FA0000162416281620721C162FFF7F1FD002801
:100FB00001D0FFF791F910BD003001401000002072
:100FC000FEE7FEE77047000008B507494FF4FA5204
:100FD0000968B1FBF2F14143009100BF0098411E46
:100FE0000091FAD208BD00000C000020F8B50446BC
:100FF0000E4615463346012202212046009500F098
:1010000017F828B1606D40F0200060650320F8BD3E
:101010003346002280212046009500F009F828B1CF
:10102000606D40F0200060650320F8BD0020F8BD31
:101030002DE9F84304460F4691461E46089DFFF7EA
:101040005FFA401B351AFFF75BFA804626480068B6
:10105000C0F3CB30684300903AE0701C38D0FFF703
:101060004FFAA0EB0800A84203D215B1009858B37C
:101070002BE02068416821F0E00141606068B0F534
:10108000827F0BD1A068B0F5004F02D0B0F5806F21
:1010900004D12068016821F040010160A06AB0F528
:1010A000005F09D12068016821F4005101602068C7
:1010B000016841F40051016001205034607000204B
:1010C00020700320BDE8F88300250098401E0090A2
:1010D0002068806837EA000004D000204845BCD171
:1010E0000020EFE70120F9E70C0000207047FFF730
:1010F0000DBA30B58FB0282105A8FFF787F8142165
:101100006846FFF783F80121059108040690002442
:101110000794099102250C950D904FF4E0100E9064
:1011200005A8FFF773FB08B1FFF7D6F80F20009072
:10113000019502944FF48060039004940221684664
:10114000FFF770FA08B1FFF7C7F800224FF0E0612F
:101150001046FFF737FB0FB030BD7047FEE70907B9
:10116000090E002804DB00F1E02080F8001470472D
:1011700000F00F0000F1E02080F8141D704700001F
:1011800010B50446204600F04DF80749204600F00F
:1011900002F906A30A220021204600F0D3F82046D7
:1011A000BDE8104000F0EDB8B21F0008486921000A
:1011B000FFF7B4F9FFF79DFFFFF762FEFFF7DEFED2
:1011C000134B144A1449154800F02CF9134800F049
:1011D000DFFC0021114800F0EBFC114C0022012142
:1011E0002046FFF785F96420FFF778F801221146C1
:1011F0002046FFF77DF94FF47A746420FFF76EF80C
:101200000648FFF7BDFF2046FFF768F8F5E7000046
:10121000471900082D1C00088823000868000020DA
:10122000000C01400168097C90F838204A43D10045
:10123000406BFEF7C9BF2DE9F04104460D46164646
:101240001F4694F87000002806D001280AD0022812
:101250000ED0032817D111E0E16D204688473044B5
:1012600086B210E0E16D20468847281A85B20AE070
:10127000E16D20468847301A86B204E0E16D2046D1
:101280008847284485B23B46324629462046BDE879
:10129000F04100F0E2BA3FB581B00446089994F8F5
:1012A0008C00002837D0BDF81000002833D001286A
:1012B0000FD9022902D0032906D00AE0BDF8082080
:1012C000101A401C029004E0BDF80C20101A401CBB
:1012D000039001F0010505B3B4F84810BDF808000B
:1012E000814218D8B4F84A10814214D9B4F84E306B
:1012F000B4F84C2004A903A800F036F900280AD05D
:101300000095206BBDF81030BDF80C208568BDF845
:1013100008102046A84705B030BDB4F84C10BDF801
:101320000C008142F7D8B4F84E108142F3D9B4F8DA
:101330004A30B4F8482004A902A800F015F90028A2
:10134000DED1E8E730B4024C446030BC00F03BB979
:101350001D1C000870B51E46049B04460D46B4F8DB
:101360004E10B4F84C0000F0F0FA40B14834334667
:10137000618820882A46BDE8704000F0E6BA002067
:1013800070BD10B50446204600F098FB2046BDE82D
:10139000104000F005BC10B50446A06D884209D08D
:1013A000A16504F1740000F021FB2046BDE8104067
:1013B00000F056B810BD00000149C165704700003B
:1013C0003916000800213030018481844FF6FF7106
:1013D0004184C18450F830194968084770B5044603
:1013E00004980025A565E362616384F8382084F8D9
:1013F000395084F86D5084F8915084F88D50012153
:1014000084F8921084F8931020630168204688477E
:101410002046FFF7D7FF2046FFF7CEFF84F8705035
:1014200070BD000070B5ADF5A66D06460D460824EA
:1014300000931346074A0849304600F0C1FB074BAA
:10144000224601A930460095FFF7C8FF0DF5A66DAD
:1014500070BD0000311D0008A11E000877190008AA
:1014600010B5816D002918D010F9811F417390F9D2
:1014700001208273037B8138002B0ED0012B0DD00D
:1014800090F97E4090F980301C448C4201DD80F858
:101490008E409A4201DD80F88F3010BD90F9833084
:1014A000994201DA80F88E3090F984108A42F4DD96
:1014B00080F88F1010BD002B06D0012B07D0022B17
:1014C00008D0104480B27047084480B27047801A38
:1014D00080B27047401A80B27047002B06D0012BB3
:1014E00007D0022B08D0401A80B27047104480B257
:1014F0007047084480B27047801A80B2704738B590
:1015000004465034E08800906388A28834F850196B
:101510002046FFF71FFF18B3012084F88C00B4F8B1
:101520004810B4F85000814201D2A4F84800B4F841
:101530004A10B4F85200814201D9A4F84A00B4F824
:101540004C10B4F85400814201D2A4F84C00B4F815
:101550004E10B4F85600814201D9A4F84E0038BDAF
:10156000002084F88C0038BD30B504880D882544EF
:10157000ADB2AC4205D99C4202D25D1EADB200E0D4
:1015800014469C4201D3002030BD954201D8002072
:1015900030BD944200D214469D4200D91D460480BD
:1015A000281B0880012030BD38B5049CC58F521B14
:1015B00092B20094C46AA04738BD38B5049C009428
:1015C000FFF7F2FF38BD2DE9F04780460C4615467F
:1015D0001E46404600F0D8FC00274FF6FF79D8F8A9
:1015E000042031784046904703464B4502D13846A7
:1015F000BDE8F087761CA3F57F40FE38EFD02A4681
:1016000021464046FFF717FE98F8703033B1012BA2
:1016100007D0022B08D0032B0BD108E021188CB285
:1016200007E029188DB204E0211A8CB201E0291AD2
:101630008DB2384487B2D2E70020704710B50C460F
:10164000214600F006F80122641EA240801A40B232
:1016500010BD30B5047B05682B78E3406218D2B228
:10166000082A09D3C4F108046D1C05602D78A54033
:101670001D43EBB2083AD2B201248C40641E1C40D8
:101680000273204630BD2DE9F843054605F160049C
:10169000284600F03EF915F96B6F2046E97BFFF70D
:1016A000CDFF8146297C2046FFF7C8FF8046697C34
:1016B0006B3D2046FFF7C2FF074694F90A00002859
:1016C00078DD06EB0800404242B2237C9046A088B9
:1016D0004946FFF7F0FEA080237C4246E088494659
:1016E000FFF7FBFEE080A18802460B46104694F807
:1016F00010C0BCF1000F09D0BCF1010F0DD0BCF13E
:10170000020F14D0BCF1030F29D11EE094F90AC0D6
:1017100063449BB2304480B221E0891B491C89B2EA
:101720005B1C9BB294F90AC0604480B217E094F944
:101730000AC0A1EB0C01491C89B25B1C9BB2921B35
:10174000521C92B2401C80B209E033449BB294F91F
:101750000AC0A2EB0C02521C92B2401C80B2009054
:101760002846FFF7F7FD40B300202072607295F81D
:1017700076102046FFF76DFF804695F877102046DB
:10178000FFF767FF814600224146284600F017F820
:1017900001224946284600F012F801212046FFF7B1
:1017A00058FF0028EFD194F90900B042DFDBA07B9D
:1017B00085F892003846BDE8F8833846FBE72DE906
:1017C000F74F84B081460D4609F1600494F8088013
:1017D000677AA07AA0EB0800C6B2B246B54200D242
:1017E000AA46A088E1880191237C7AB24FFA88F159
:1017F00093460391FFF75FFE0290237C5A460399BC
:101800000198FFF76AFE0246069850B1A07B89F85E
:101810009200207C0090534648460299FFF73BFD1A
:101820000BE0607B48B9E07B89F89200207C009057
:10183000534648460299FFF72EFDB54206D208EB03
:1018400005002072677207B0BDE8F08FA81BC5B213
:101850004FF000087F1CFFB2BBE770B504460025BF
:10186000A4F86410A4F866201946204600F00BF88E
:10187000014619B12046FFF706FF85B2284670BD24
:1018800008440078704770B502460D46906D1730D9
:10189000FF2D13D8612D03D3B2F88810084404E05B
:1018A000412D02D3B2F886100844417829B302785A
:1018B000AA4201D1801C70BD0844F6E7B2F88A1034
:1018C0000C1826460021304600F019F80444022185
:1018D000304600F014F8361DA842F3D34FF6FF72DD
:1018E000207802EA00216078084330B1A84201D193
:1018F000E01C70BDA0780444F2E7002070BD0844ED
:1019000001784FF6FF7202EA01214078084480B264
:10191000704730B5054605F1600421600020207352
:1019200015F8781F2046FFF794FEA07269782046CC
:10193000FFF78FFEE072A87EA07310B10020E07365
:1019400030BD0120FBE7012070478A4209D2834263
:1019500001D9012070479A4201D901207047002027
:101960007047834205D99A4201D90120704700206F
:10197000704700207047F0B5059F0468257C01F092
:1019800007068024F4406A4302EBD10189B2426B1E
:101990001144002F16D190F89220012A02D80A781B
:1019A00022430A7090F89220012A02D00A786240FD
:1019B0000A7064080CB98024491C5B1E9BB2002B82
:1019C000E9D1F0BD90F89220012A02D80A7822438A
:1019D0000A7090F89220012A02D00A7862400A70B8
:1019E00029445B1E9BB2002BECD1F0BD70B50446C0
:1019F0000D4600212846FFF743FF207001212846AD
:101A0000FFF73EFF607002212846FFF739FFA07004
:101A100003212846FFF734FFE07004212846FFF732
:101A20002FFF207105212846FFF72AFF607106214C
:101A30002846FFF725FFA07107212846FFF720FF62
:101A4000E07108212846FFF71BFF20720921284674
:101A5000FFF716FF60720A212846FFF711FFA072F8
:101A60000B212846FFF70CFFE0720C212846FFF7F8
:101A700007FF20730D212846FFF702FF60730E2138
:101A80002846FFF7FDFEA0730F212846FFF7F8FE5A
:101A9000E07310212846FFF7F3FE20741121284639
:101AA000FFF72DFF608213212846FFF728FFA08251
:101AB00015212846FFF723FFE08270BD2DE9F04194
:101AC0000746002497F8386097F83950386890F83E
:101AD00011802A462146384600F00AF8641CE4B218
:101AE0006D1CEDB2B44201D24545F2D3BDE8F081A0
:101AF00038B503681B7C446B594389B24FF6FF75B8
:101B000005EAC10121440091002100F032F838BDFE
:101B1000F0B5016890F838204FF6FF7606EAC20368
:101B200083870B7C06EAC303438790F8393006EAC3
:101B3000C304C4874D7C9F18AF4201D9EA1A92B200
:101B400006EAC20220F8404F224442808A8A8280FC
:101B5000C98AC180F0BDFFF7DBBF002140300181A1
:101B600081884181018881814188C1814038FFF7A6
:101B7000C6BC1CB5049C8DF805108DF806208DF8A8
:101B800004300094012284686B460F21A0471CBDDD
:101B900030B484680023A44630BC1A460A2160474A
:101BA00030B484680023A44630BC1A461021604734
:101BB00030B484680023A4460A4630BC0B21604739
:101BC0002DE9F0410446069F0D461646204600F0DA
:101BD00009F8A560E660236167612046BDE8F04131
:101BE00000F014B80021083040F8081C064A0260D2
:101BF00042608260C260C17681770161FF21017716
:101C000080F8201070470000791F000830B4846805
:101C10000023A44630BC1A46092160470846002824
:101C200001D00A2801D14FF6FF70704710B5184651
:101C3000172906D00C48182909D019290DD00020E1
:101C400010BD014664230948FFF73CF80AE0012271
:101C50000821FEF74DFC00BF04E000BF0022082170
:101C6000FEF746FC012010BD0008014010000020D6
:101C700013B501AA012100F001F81CBD30B40469BC
:101C80001346A4460A4630BC1721604730B4C468E6
:101C90000023A44630BC1A461921604730B4C468FA
:101CA0000023A4460A4630BC1521604730B4C468FE
:101CB0001346A4460A4630BC17216047F8B50546CE
:101CC0000C4614F8011B182923D00EDC152918D056
:101CD000162916D0172922D1207800906A460121B2
:101CE0002846FFF7E3FF641CEBE7192911D0FE2912
:101CF00015D1227800922921284600F03FF9641C72
:101D0000DFE722780092EE6800232846B047641C83
:101D1000D7E70023EE681A462846B047D1E7F8BD5A
:101D200030B4C4680023A44630BC1A46182160476A
:101D30002DE9F041074615461C46A1F114002E017D
:101D400005F0F008062870D2DFE800F066031F2CCB
:101D50006666F8213846FFF78BFF01222C213846B2
:101D600000F00CF941463846FFF782FF01222C2192
:101D7000384600F003F9F1B23846FFF779FF012247
:101D80002C21384600F0FAF843E0F8213846FFF7F6
:101D90006FFF41463846FFF76BFFF1B23846FFF759
:101DA00067FF36E0FA213846FFF762FF01222C2157
:101DB000384600F0E3F814E008221D4914F8013B0E
:101DC00003F0F000087018014870891C521ED2B24E
:101DD000002AF3D1083DEDB2154A10213846FFF72D
:101DE0004DFF082DE8D20DE02678384606F0F001C8
:101DF000FFF73EFF3007010E3846FFF739FF641C3E
:101E00006D1EEDB2002DEFD101222C21384600F0DD
:101E1000B5F80120BDE8F0813E6923462A463846E0
:101E2000B446BDE8F0416047FFE70020F2E700005C
:101E3000FC00002070B50446002365691A4628217D
:101E40002046A8470023E5681A4614212046A847E3
:101E500001224B21204600F091F8206829210279C7
:101E6000204600F08BF800224B21204600F086F837
:101E7000206829210279204600F080F801224B21B8
:101E8000204600F07BF82068292142792046BDE8F1
:101E9000704000F073B80160897C80F822107047B0
:101EA00010B5092903D0BDE8104000F007B8024979
:101EB000FFF7F1FF012010BD1C2400082DE9F047B9
:101EC00081461E460A2906D00B290CD00F2917D0AF
:101ED0000020BDE8F0874846FFF7ACFF254948469B
:101EE000FFF7ECFE43E02AB1224948461331FFF7E1
:101EF000E5FE3CE01F494846C91FFFF7DFFE36E01C
:101F0000B079C006050E70794FEA5008202D05D330
:101F1000203DEDB208F1080808F0FF084846FFF739
:101F2000FFFE37683E214846FFF7B8FE3E2148468F
:101F3000FFF7B4FE002448F0800A2819C0B240F030
:101F400080014846FFF7AAFE51464846FFF7A6FE25
:101F500096F804803A4641464846FFF7A7FE4744B4
:101F6000641CE4B2082CE8D34846FFF78FFE01203A
:101F7000AFE700009B2300080020704730B444699D
:101F80000023A44630BC6047002180F8261070472B
:101F9000010202030405060708090A0B0C0D0E0FC7
:101FA00010100000000000000000010203040607FA
:101FB00008095F0003020304030504050A00FE0785
:101FC000FE07000142028803B620050062072107D0
:101FD0003943C7A00422079B52476209230E3D42A2
:101FE0004F294906A53228A52401240C3D4257B6A5
:101FF000D4B624D92200250C3D424FA474ABB4487A
:102000000900260D3D424F9644495649A4480927E8
:10201000061953C7002808BB425752AA152909BB05
:10202000424756AA94002A0A2D4647965406A52DE3
:102030002B0A2D4657180D5218012C079B3E8F5224
:10204000022D060D4EC7202E089B3E4FB224002FB6
:10205000083D4267AD6308300B3D425796D46C494A
:102060002D02310A3D4257262561D320320C3D42D4
:10207000CF92859194858300330C3D42C7206699A9
:10208000AA250B00340C3D425F2625A564D0C2046E
:10209000350B3D42C73131855AB200360C3D42976F
:1020A000948589494B1600370B3D42C7206661561F
:1020B000CC00380C3D42CF9269C99269C902390CF3
:1020C0003D42CF92498A126691043A0ABB3E4FB212
:1020D000A4C992003B09BB3E4FB2A44A093C08BCCC
:1020E000425FD4D8003D081D4AC7A00E023E08BC7E
:1020F0004247D8D4063F0A3D42CF9235E6500440CD
:102100000C3D42CF92494B62491700410C3D42576A
:1021100096D4B461C8B400420D3D42C71055A264C4
:10212000AA448302430A3D42CF92896DC902440FFB
:102130003D42C71055A2244AA2241A1400450B3D63
:1021400042C7311C92301C04460A3D42C7311C92E2
:10215000B008470B3D42CF9289A52D5900480A3D52
:102160004247661B86CC164908BB42C71275194AFE
:102170000A3D42D716B64491044B0D3D42472625F1
:10218000252D892A59004C083D4247D8E3204D0BA4
:102190003D4247A62D4BA2D9024E0C3D4247A64DCB
:1021A0004A226D5A004F0A3D42CF92794B16005099
:1021B0000C3D42C79064DAA0844500510A453ECFE9
:1021C0009279A9AC01520D3D42C79064DAA0942ADD
:1021D0005900530B3D42CF92A9AB962C0054093DB8
:1021E00042C720853D0155093D4247E65BB2005696
:1021F0000D3D4247664B4A4994641100570A3D42DF
:1022000047E69228C92D580B3D4247A625B54A4DB1
:102210000B590A3D4247A625B5B0095A0A3D42C7A7
:1022200020661D07015B08BB42C710751A5C083D9C
:10223000424798760C5D08BB42C7D469085E081D0A
:10224000525796D4025F060D3EC7206006125B47C8
:1022500014610A2D42CF9A0C5A3204620B3D424758
:1022600058316993A200630A2D42CF928959B20076
:10227000640A3D4267C5B4498A12650A2D42CF926D
:102280000D43BA00660B3D429754C98628AC0167DE
:102290000C3D3ACFA069C9106AC902680A3D42479D
:1022A000583169B6006908BB424F28B50C6A0BCC9F
:1022B0003A5FACD5242951006B0B3D4247589392AD
:1022C000A992056C08BB4287D4CB006D0B2D4287C9
:1022D000D2A2244AA2056E092D424762D26C016F38
:1022E000092D42CF92D99205700C3D3A4762D22611
:1022F00045094300710A3D3A8F699314252C7209F0
:102300002D424762128B0073092D42CF921E14009A
:10231000740C3D424F980D51588A140075092D4296
:1023200047E6A42801760B2D4247A625A5248B005D
:10233000770A2D42476649942E00780A2D42479627
:10234000D42AB500790C3D3A47665294504B16009A
:102350007A092D42C7A0B50D027B0ABC429712260E
:1023600062140A7C063943C7217D0BBC428718855D
:102370004A9848007E091D524FA4245202000000D2
:1023800004FFFF0000000000571B00085B1B000853
:10239000BB150008181538150C19FFFE6418FE0A45
:1023A00015381508150615021501FE0A19FF18152E
:1023B0003815081534150119FF0000000100050546
:1023C0000106148C40420F0003041E281004000074
:1023D00080002000010005050106148C40420F001A
:1023E00003041E28120400009000200001000505CF
:1023F0000106148C40420F0003041E281404000040
:10240000A0002000010005050106148C40420F00C9
:1024100003041E2818040000C00020000100050568
:102420000106148C40420F0001041E281008000011
:1024300080004000010005050106148C40420F0099
:1024400003041E2820040000000120006C24000862
:102450000000002010000000280100087C24000873
:102460001000002060070000440100080100000087
:0C247000100000000000000000127A00C4
:04000005080000ED02
:00000001FF
