:020000040800F2
:10000000B80A0020E1010008EF1F0008CB1E00081D
:10001000ED1F0008C51200087F2100080000000045
:10002000000000000000000000000000192100088E
:10003000C712000800000000F11F00081B21000883
:10004000FB010008FB010008FB010008FB010008A0
:10005000FB010008FB010008FB010008FB01000890
:10006000FB010008FB010008FB010008FB01000880
:10007000FB010008FB010008FB010008FB01000870
:10008000FB010008FB010008FB010008FB01000860
:10009000FB010008FB010008FB010008D112000869
:1000A000FB010008FB010008FB010008FB01000840
:1000B000FB010008FB010008FB010008FB01000830
:1000C000FB010008FB010008FB010008FB01000820
:1000D000FB010008FB010008FB010008FB01000810
:1000E000C9120008FB010008FB01000800F002F83B
:1000F00000F067F80AA090E8000C82448344AAF15B
:100100000107DA4501D100F05CF8AFF2090EBAE858
:100110000F0013F0010F18BFFB1A43F0010318473B
:10012000A4430000C44300000A444FF0000C10F840
:10013000013B13F0070408BF10F8014B1D1108BF65
:1001400010F8015B641E05D010F8016B641E01F805
:10015000016BF9D113F0080F1EBF10F8014BAD1C55
:100160000C1B09D16D1E58BF01F801CBFAD505E073
:1001700014F8016B01F8016B6D1EF9D59142D6D3CD
:10018000704700000023002400250026103A28BFF5
:1001900078C1FBD8520728BF30C148BF0B607047F9
:1001A000662903F0E586002070471FB500F04CFB80
:1001B00004000020002103F0B9FBE0601FBD10B572
:1001C00010BD00F041FC1146FFF7EFFF02F030FCDC
:1001D00000F05FFC03B4FFF7F2FF03BC00F0A4FCE7
:1001E0000948804709480047FEE7FEE7FEE7FEE7CB
:1001F000FEE7FEE7FEE7FEE7FEE7FEE70448054907
:10020000054A064B704700007D210008ED000008FC
:10021000B8040020B80A0020B8060020B806002064
:100220000FB41CB5074B06AA7B446946009005989D
:1002300000F0F1FA0020694600F000FB1CBC5DF8FC
:1002400014FB0000110600002DE9F0474FF0000AF2
:1002500089460446C0F820A02046E1688847002867
:1002600076D0252806D0D4E901219047206A401C89
:100270002062F1E7E168204600258847C4F81CA009
:1002800006460027C4F818A02A2E09D0304601F0EF
:100290009BFF38B304EB8708303EC8F8186019E0BC
:1002A00059F8041B204604EB87029161E1688847F6
:1002B000012F064618D1E069002820DA25F0200534
:1002C0001DE0D8F8180000EB800006EB4000303845
:1002D000C8F818002046E1688847064601F074FF18
:1002E0000028EED1012F0AD02E2E08D12046E16839
:1002F00088477F1C0646022F45F02005C4DBA06915
:10030000002803DA404245F00105A061E80701D06A
:1003100025F01005B6B1A6F14100192802D8203603
:1003200045F400654A463146204625604D46FFF7B4
:1003300037FF58B1012806D0ED1D25F0070000F168
:10034000080989E704E005F1040985E730468AE7F2
:10035000206ABDE8F0874FF000020429C0F0128047
:1003600010F0030C00F01B80CCF1040CBCF1020F68
:1003700018BF00F8012BA8BF20F8022BA1EB0C013D
:1003800000F00DB85FEAC17C24BF00F8012B00F833
:10039000012B48BF00F8012B70474FF0000200B559
:1003A000134694469646203922BFA0E80C50A0E898
:1003B0000C50B1F12001BFF4F7AF090728BFA0E846
:1003C0000C5048BF0CC05DF804EB890028BF40F812
:1003D000042B08BF704748BF20F8022B11F0804F54
:1003E00018BF00F8012B704770477047704770477F
:1003F0002DE9FF4F0C461E464FF0FF378BB0D2E978
:100400000001DDF860800A908A46C1F30A5505B9FB
:100410003D46002108464FF00000BAF1000F00F4FD
:10042000400005DA00EB80004FF4400101EA500083
:100430004FEA9059B9F1010F00DDB9460A9850EA28
:100440004A000ED044F61050A5F2FF3545432F1454
:10045000B8F1000F1ED07542291E1EDDC9F1000241
:100460001CE0B8F1010F4FF0000001D0302103E093
:10047000F24305E02154401CB042FBDB3046002231
:10048000002121540B99C1F80880C1E900200FB068
:10049000BDE8F08FBD1B6D1CDEE74A4600DA6942FD
:1004A00006A800F05BFA06AB93E8070003AB83E80D
:1004B000070050460A9900F03DFB8DE80700A0F5C3
:1004C00000501F3800900398002D0ADD42F21F01F2
:1004D0004A460844002303A90390684600F0A6FD9D
:1004E00009E0A0F500504A461F38002303A90390F5
:1004F000684600F0B0FD8DE807000004000C03D052
:100500004FF0FF30410800E01046B8F1000F03D073
:100510000022009215461EE0751E05D400F098F9E1
:10052000303262556D1EF9D5B3460122084302D020
:1005300000227F1C04E02078302801D100227F1E99
:10054000002A099784D01DE0112D07DA00F080F908
:10055000303262556D1C50EA0102F5D1084302D0D9
:100560000098C8B10EE00021681E05E0235C625CC3
:1005700063542254401E491C8142F7DBAB46A81B42
:10058000401E0990002004F80B000B98099AC0F84F
:100590000880C0E9002B7AE711264FF0000857E7E2
:1005A0002DE9F04F88460446D21D22F0070191B094
:1005B000D1E90001CDE90A0101F0E2FD02460B9804
:1005C000C00F01D02D2007E02068810701D52B2026
:1005D00002E0202101EAC000032A099001D0072A85
:1005E00005DB03464146204600F078F90BE1207810
:1005F000800601D5E06900E00620B8F1650F81466C
:1006000006D0B8F1660F18D0B8F1670F70D131E09D
:100610000020B9F1110F009001DB112301E009F175
:1006200001030AAA01A90CA8FFF7E2FEDDE90C709C
:10063000002609F10105834647E001204B46009062
:100640004FF000470AAA01A90CA8FFF7D1FEDDE987
:100650000DB00C995D46002610B909F101000D1886
:10066000B9EB050003D4C0F1FF3609F10105A5EB94
:1006700009002BE0B9F1010F01DA4FF00109002068
:10068000B9F1110F0090484601DD112300E0034647
:100690000AAA01A90CA8FFF7ABFEDDE90C704D46D4
:1006A00000268346207800070AD4AB4500DA5D4671
:1006B00001A8012D04DD411911F8011C302907D0D2
:1006C0004F4502DA17F1040F04DA012082460FE0E9
:1006D0006D1EEEE7002F02DCED1B3E4403E0781CAC
:1006E000A84200DD7D1CB81B00F1010A4FF0004755
:1006F0002078000703D4AA4501DB4FF0FF3A002120
:10070000B7F1004F0DF143088DF8431024D00220BB
:100710002B23002F01DA7F422D230A21021EA0F194
:10072000010000DC5FB197FBF1FC97FBF1F201FBEC
:100730001C7C17460CF1300C08F801CDEEE7A8F14F
:10074000010003702188090501D5452100E06521DC
:10075000A0F1010800F8011C09980FA9A1EB0807F6
:10076000FF1D00B10120411901EBEA70A169384475
:10077000081A401EA0612078C00602D42046AFF3BC
:100780000080099828B1D4E901219047206A401CD3
:1007900020622078C00622D52046AFF300801EE0FC
:1007A000002E04DBB34502DD01A8805D00E03020AF
:1007B000D4E901219047206A401C2062761CAAF1EE
:1007C00001005FEA000A0AD100F03EF8C068016843
:1007D000405CD4E901219047206A401C2062281E19
:1007E000A5F10105DCDC07E0D4E9012118F8010BD3
:1007F0009047206A401C2062381EA7F10107F3DCF5
:100800002046AFF30080032011B041E601694A1C85
:1008100002610878704700B58FB0CDE90131002141
:10082000059105497944CDE9031011466846FFF763
:100830000BFD0FB000BD0000E5FFFFFF0A6802F8E6
:10084000010B0A60704700000048704778040020E0
:1008500030B5B0F10A024FEA900E71F100034EEA92
:10086000817EB0EB0E0061EB91014FEA101E4EEA63
:10087000017E10EB0E0041EB11114FEA102E4EEAF3
:10088000016E10EB0E0041EB11214FEA104E4EEAC3
:10089000014E10EB0E0041EB1141401841F10001F7
:1008A0004FEAD00040EA41704FEAD10110EB8005D9
:1008B0004FEA810444EA907444EB01046D1944EB5F
:1008C0000404521BA3414FF0000348BF0A3200D575
:1008D00030BD401C41F1000130BD00002DE9F04168
:1008E0001F46044603260168072A01F4006004DB62
:1008F00008B116A505E016A503E008B115A500E0AE
:1009000015A521F010002060A069C01EA0610FB1E4
:10091000401EA0612046AFF300804FB1D4E9012111
:1009200038469047206A401C2062C01C206206E0C6
:10093000206AFAE7D4E9012115F8010B9047761EE9
:10094000F8D22046AFF30080BDE8F0814E414E0062
:100950006E616E00494E4600696E66002DE9F047F3
:10096000814616468AB0354878440DC88DE80D009A
:1009700032487844801C03AC0DC884E80D0041F671
:100980009B300844372190FBF1F290FBF1F5A5F183
:10099000800501FB12041B3C02D56442012000E0EB
:1009A0000020DFF898A080460027FA44AAF1BE0A8A
:1009B0000EE0E0070AD03246684607EB4701012304
:1009C0000AEB810100F047FB8DE8070064107F1CF3
:1009D000002CEED1194F7F44AE3F19E0E80715D047
:1009E00007EB04100DF1180A90E80E008AE80E00DB
:1009F000C068F04201D1981908903246012306A937
:100A000003A800F028FB03AB83E807006D10641C0B
:100A1000002DE3D14FF0010332466946B8F1000FD3
:100A200003A802D000F002FB01E000F014FBC9E9CA
:100A30000001C9F808200AB0BDE8F087403B00007B
:100A400000487047580400207546FFF7F9FFAE468E
:100A500005006946534620F00700854618B020B5CA
:100A6000FFF7CCFBBDE820404FF000064FF0000739
:100A70004FF000084FF0000B21F00701AC46ACE846
:100A8000C009ACE8C009ACE8C009ACE8C0098D46B3
:100A9000704710B50446AFF300802046BDE8104013
:100AA000FFF798BB4FF0013C50F8042B51F8043B82
:100AB0009A4221D1A2EB0C03934313EACC1317D132
:100AC00050F8042B51F8043B9A4215D1A2EB0C03C9
:100AD000934313EACC130BD150F8042B51F8043B89
:100AE0009A4209D1A2EB0C03934313EACC13DBD057
:100AF0004FF00000704700BFD01A01BAB1FA81F17F
:100B000001F0180122FA01F0CB40C1F12001DBB263
:100B1000C0B2C01A2CFA01F3D11A914311EAC311E1
:100B2000E6D170477047000001491820ABBEFEE7D0
:100B3000260002005FEA400C08BF91F0000F4FEA68
:100B40008C234FEAC12243EA51514FEA1C5018BF8F
:100B500000F5F0404FEA300018BF41F000415FEA75
:100B60006C5C00F02980BCF1FF3F08BF40F0804082
:100B70007047130C06BF12044FF0100C4FF0000C1E
:100B8000130E04BF12020CF1080C130F04BF120164
:100B90000CF1040C930F04BF92000CF1020CD30F64
:100BA00004BF52000CF1010C11464FF00002A0F1FD
:100BB0001F00A0EB0C00704711F0004F08BF7047FA
:100BC00031F000413FF4D5AF0B0C06BF09044FF0E4
:100BD000100C4FF0000C0B0E04BF09020CF1080CB6
:100BE0000B0F04BF09010CF1040C8B0F04BF89002B
:100BF0000CF1020CCB0F04BF49000CF1010CCCF13D
:100C00002003A0EB0C0022FA03F302FA0CF241EAF3
:100C1000030100F10100704720F07F4C80EA0300DF
:100C200023F07F47ACEB070303F57C5300F0004053
:100C300003F1FF032DE980494FEA154B09B44FEA50
:100C4000144325EA0B4E24EA03480FF2042606EB70
:100C5000132749083E785FEA320203FB0667C7F5AF
:100C6000000707FB06F64FEA54374FEAD64606F16F
:100C7000020607FB066CCCF1005C4FEA1C472CEA2D
:100C8000074C07FB06F40CFB06F504EB15464FEA90
:100C9000961634BF00204FF000404FEAD13706FBD4
:100CA00007FC4FEA1C4C0CFB0BF7D21B03FB0CF7A9
:100CB00061EB07010CFB0EF7B0EB074072EB17423C
:100CC0000CFB08F734BFA2EB0742B2EB074261EB23
:100CD00017414FEA0C444FEA910706FB07FC4FEA25
:100CE0001C4C0CFB0BF7B0EBC74072EB573203FB0D
:100CF0000CF734BFA2EBC742B2EBC74261EB5731EE
:100D00000CFB0EF7B0EBC70072EB57720CFB08F749
:100D100034BFA2EBC702B2EBC70261EB5771039F6E
:100D20004FEA816141EA921104EBCC044FEAD137DA
:100D30004FEA826206FB07FC42EA90124FEA8060AB
:100D40004FEA1C4C0CFB0BF7D21B03FB0CF761EBBF
:100D500007010CFB0EF7B0EB074072EB17420CFBE0
:100D600008F734BFA2EB0742B2EB074261EB174131
:100D70004FEA8C554FEA910704EB9C2406FB07FCD5
:100D80004FEA1C4C0CFB0BF7B0EBC74072EB573231
:100D900003FB0CF734BFA2EBC742B2EBC74261EBD7
:100DA00057310CFB0EF7B0EBC70072EB57720CFB20
:100DB00008F734BFA2EBC702B2EBC70261EB577171
:100DC00015EB4C254FEA816141EA92114FEA8262AC
:100DD0004FEAD13742EA901206FB07FC44F10004C7
:100DE0004FEA80604FEA1C4C0CFB0BF7D21B03FB55
:100DF0000CF761EB07010CFB0EF7B0EB074072EB51
:100E000017420CFB08F734BFA2EB0742B2EB0742D4
:100E100061EB174115EB1C154FEA813141EA924114
:100E20004FEA823242EA90424FEA80304FEA0C7633
:100E300044F1000448EA03434EEA0B484FF0000E29
:100E4000B2EB080C71EB030724BF624639464EEB48
:100E50000E0E4FF0000B0018524149414BEB0B0BAB
:100E6000B2EB080C71EB03077BF1000B24BF624669
:100E700039464EEB0E0E4FF0000B0018524149411F
:100E80004BEB0B0BB2EB080C71EB03077BF1000B88
:100E900024BF624639464EEB0E0E51EA020718BFD8
:100EA00046F0010616EB0E7655F1000254F10001F2
:100EB00003D5BDE88901BDE80088BDE88901BDE82A
:100EC0000048B619524141EB0101A3F101037047FB
:100ED00080807F7E7D7C7B7A797877767675747377
:100EE000727171706F6E6E6D6C6C6B6A6A69686836
:100EF000676666656464636362616160605F5F5ECC
:100F00005E5D5D5C5C5B5B5A5A5959585857575641
:100F100056555555545453535252525151505050A6
:100F20004F4F4F4E4E4D4D4D4C4C4C4B4B4B4A4AF8
:100F30004A4949494848484747474746464645453C
:100F40004544444444434343434242424241414175
:100F5000002B9C4630D477002BD01CB54FEA3707C6
:100F600003B44FF010004FF01001BAF1000F06D09B
:100F7000BCF1000FDCBF40F0080040F008014FF06A
:100F800000000FBCBDE810400BF1010BBBF1010FDD
:100F900008BF5FEA170722BF12F1010211F1010138
:100FA0004FF0004143F1000300F0004043EA00002D
:100FB0007047F9D35708D0E746EA064613F1400FC9
:100FC0004FEA16461FDD13F1200FDFBF16430A4616
:100FD000002120335B42BED0C3F1200746EA06461B
:100FE00002FA07F74FEA164646EA0706C3F120075A
:100FF00022FA03F201FA07F721FA03F14FF0000396
:1010000042EA0702A7E746EA020646EA06464FEA30
:10101000164646EA0106BCBF46EA0646360C4FF0C5
:1010200000034FF000024FF0000194E72DE9804CDF
:101030009A46934670B491E8380007C831EA400CEC
:1010400048BF34EA430C03D5FFF7E6FDFFF780FF06
:10105000F0BCBDE8008C2DE9804C9A46934670B4F4
:1010600091E8380007C810F0804F08BF13F0804F98
:1010700003D100F005F8FFF76BFFF0BCBDE8008C72
:1010800020F07F4780EA030023F07F4C07EB0C033E
:10109000A3F57C5300F00040A3F1FE0392F0000F93
:1010A00000F0B38095F0000F00F077802DE9014942
:1010B0004FEA11404FEA144621EA004800FB06FCC3
:1010C00024EA064708FB06F607FB08F800FB07F7CB
:1010D00018EB06484CEB164C4FEA124B18EB07483E
:1010E0004FEA15464CEB174022EA0B4E0BFB06FC71
:1010F00025EA06470EFB06F607FB0EFE0BFB07F77D
:101100001EEB064E4CEB164C4FF000061EEB074E46
:101110004CEB174B18EB0B0840F1000018EB0E0BD3
:1011200058EB000840F100008F1A4FF000013CBF5F
:10113000C943661B14BFB5EB040C00213CBFC94377
:10114000F61B4FEA17444EEA8E0E27EA04454FEA93
:101150001C4704FB07622CEA074C05FB07F70CFB56
:1011600005F604FB0CFC16EB074642EB174216EBA8
:101170000C4642EB1C421BEB060658EB02024141B7
:1011800046EA9E0601D5BDE80189B619524141EBF8
:101190000101A3F10103BDE801894FEA14454FEABB
:1011A000114724EA054621EA074C05FB07F406FB34
:1011B00007F70CFB06F105FB0CFC11EB074144EBB8
:1011C00017444FEA124711EB0C4144EB1C4422EA4E
:1011D000074C05FB07F206FB07F70CFB06F605FBC1
:1011E0000CFC16EB074642EB174216EB0C4642EBA3
:1011F0001C456A1854F1000148BF7047B6195241A6
:1012000041EB0101A3F10103704795F0000F37D0C6
:101210004FEA11424FEA144721EA024624EA074CFA
:1012200002FB07F106FB07F70CFB06F402FB0CFCC4
:1012300014EB074441EB17414FEA154714EB0C44FC
:1012400041EB1C4125EA074C02FB07F506FB07F7BB
:101250000CFB06F602FB0CFC16EB074645EB1745AC
:1012600016EB0C4645EB1C42121951F1000148BF28
:101270007047B619524141EB0101A3F101037047D8
:101280004FEA14454FEA114724EA054621EA074C84
:1012900005FB07F106FB07F70CFB06F24FF0000613
:1012A00005FB0CFC12EB074241EB174112EB0C4221
:1012B00051EB1C4148BF7047921841EB0101A3F16B
:1012C00001037047FEE770474FF4004000F04AB852
:1012D00010B54FF4807000F045F8BDE810404FF4B1
:1012E000007000F03FB872B6FEE7000070B504462B
:1012F00000F04AF90546601C02D004480078044416
:1013000000F042F9401BA042FAD370BD0800002053
:101310002DE9F041104F4FF40071384600F026F9E6
:1013200001250E4C002680B126704FF4807138469E
:1013300000F01CF958B166704FF40041084800F005
:1013400015F930B1A670BDE8F0812570EDE7657044
:10135000F2E7A570F7E70000000801400000002058
:10136000000C014010B504490A68024202D008602E
:10137000FFF7CEFF10BD0000140401402DE9F84F27
:1013800000240023DFF8C4914FF00F08A9F1040BEB
:1013900009F1040AABF1040ED1E00127A7403A405D
:1013A000BA4275D1DFF8A8C14D68A5EB0C066545BA
:1013B0002BD00DDC032D34D005DC35B3012D19D035
:1013C000022D2FD11BE0112D16D0122D2AD119E09C
:1013D000B6F5881F19D006DCB6F5803F15D0B6F5F6
:1013E000801F1FD111E0B6F5001F0ED0B6F5041F07
:1013F00018D10AE0CB6815E0CB681B1D12E0CB6862
:1014000008330FE0CB680C330CE08B6823B1012B61
:1014100004D00823476105E0042303E008230761A3
:1014200000E00023FF2A01D8054601E000F1040591
:1014300002D84FEA840603E0A4F108064FEA8606C4
:101440002F6808FA06FC27EA0C0703FA06F647EAB3
:1014500006072F604D68ED0070D53E4DAE6946F031
:101460000106AE61AD6905F0010500953A4D24F025
:1014700003067719BE68A5072D0F08FA05FC26EAB2
:101480000C06DFF8D8C0604503D14FF0000C17E020
:1014900054E0DFF8CCC0604502D14FF0010C0FE002
:1014A000DFF8C0C0604502D14FF0020C08E0DFF861
:1014B000B8C0604502D14FF0030C01E04FF0040CBE
:1014C0000CFA05FC4CEA060CC7F808C04D68ED02A2
:1014D00005D5D9F800501543C9F8005004E0D9F8F3
:1014E00000509543C9F800504D68AD0205D5DAF8B3
:1014F00000501543CAF8005004E0DAF80050954354
:10150000CAF800504D68AD0305D5DBF8005015430F
:10151000CBF8005004E0DBF800509543CBF80050C6
:101520004D68ED0305D5DEF800501543CEF80050A8
:1015300004E0DEF800509543CEF80050641C0A68C1
:1015400032FA04F57FF429AFBDE8F88F08040140B2
:10155000000011100010024000000140000801408E
:10156000000C014000100140001401408068084256
:1015700001D00120704700207047002A01D001618E
:101580007047090401617047014880687047000096
:101590000800002002488168027811448160704789
:1015A0000800002010B50748016841F010010160F3
:1015B000032000F077F80F2000F006F800F026F87E
:1015C000002010BD0020024070B504460D4D4FF4C0
:1015D0007A712878B1FBF0F00B490968B1FBF0F0A3
:1015E00000F05FFC08B1012070BD102C07D2002272
:1015F0002146501E00F036F86C60002070BD0120BE
:1016000070BD0000080000201400002008B50C4840
:10161000816941F001018161816901F0010100915D
:10162000C16941F08051C161C06900F080500090F3
:101630000449486820F0E06040F00070486008BD50
:101640000010024000000140002809DB00F01F02EA
:10165000012191404009800000F1E020C0F8001114
:1016600070470000F0B40D460D4B1B68C3F3022316
:10167000C3F10704042C00D90424191D072901D241
:10168000002300E0DB1E012606FA04F1491E294072
:1016900099409E40761E16403143F0BC00F084BD58
:1016A0000CED00E000F00701054A10684FF6FF035B
:1016B000184040EA012003490843106070470000C9
:1016C0000CED00E00000FA052DE9F04704460D4658
:1016D000002C17D0DFF83081D8F8000000F00700A8
:1016E000A84211D2D8F8000020F007002843C8F81B
:1016F0000000D8F8000000F00700A84204D0012044
:10170000BDE8F0870120FBE72068404E810712D535
:10171000400703D5706840F4E060706020780007EF
:1017200003D5706840F4605070607068A16820F064
:10173000F000084370602078C0072CD06068012852
:1017400006D0022809D0316889070BD40120D7E7D9
:101750003168890306D40120D2E73168890101D4B8
:101760000120CDE7716821F0030101437160FFF7AB
:101770000BFF074641F2883906E0FFF705FFC01B63
:10178000484501D90320BBE77068616800F00C0090
:10179000B0EB810FF1D1D8F8000000F00700A842AB
:1017A0000ED9D8F8000020F007002843C8F8000040
:1017B000D8F8000000F00700A84201D001209FE700
:1017C0002078400705D57068E16820F4E0600843A0
:1017D00070602078000706D57068216920F4605099
:1017E00040EAC100706000F019F87168084AC1F35E
:1017F0000311515CC8400749086007480068FFF7BB
:10180000E3FE00207CE700000020024000100240C0
:10181000863F0008140000200C0000200E4B596881
:101820000E4801F00C02042A11D0082A0FD10C48EE
:10183000C1F38342805CC9030AD55968084AC1F3E1
:101840004041921E515C054A5043B0FBF1F0704795
:1018500004494843704700000010024000127A001B
:10186000763F000800093D002DE9F84F0446002CA2
:101870000ED02078D94DC0075ED06868C0F38100D3
:1018800001280BD06868C0F38100022803D00CE067
:101890000120BDE8F88F6868C00306D5286880037A
:1018A0004AD56068A8BB0120F3E76068B0F5803FC7
:1018B00011D0A8B1B0F5A02F1BD0286820F480303B
:1018C0002860286820F480202860606830B3FFF723
:1018D0005BFE06461EE0286840F480302860F4E78E
:1018E000286820F480302860286820F48020286050
:1018F000EBE7286840F480202860286840F48030B6
:101900002860E2E7FFF740FE801B642802D903202D
:10191000BFE711E028688003F4D50DE0FFF734FE3F
:10192000064606E0FFF730FE801B642801D903203D
:10193000AFE728688003F5D42078DFF8A482800719
:101940004FF0010A4FF0000945D5686810F00C0F00
:1019500007D06868C0F38100022812D16868C0030C
:101960000FD42868800704D52069012801D0012000
:101970008FE72868616920F0F80040EAC10028601C
:1019800029E02069B8B1C8F800A0FFF7FDFD0646C0
:1019900006E0FFF7F9FD801B022801D9032078E754
:1019A00028688007F5D52868616920F0F80040EACA
:1019B000C10028600FE0C8F80090FFF7E5FD06467B
:1019C00006E0FFF7E1FD801B022801D9032060E754
:1019D00028688007F5D42078000726D58148A169BA
:1019E00099B1C0F800A0FFF7CFFD064606E0FFF76B
:1019F000CBFD801B022801D903204AE7686A8007D3
:101A0000F5D5012000F0F6FA0FE0C0F80090FFF7DE
:101A1000BBFD064606E0FFF7B7FD801B022801D993
:101A2000032036E7686A8007F5D42078400773D52D
:101A30000026E869C00008D4E86940F08050E861F9
:101A4000E86900F0805000900126DFF89CB1DBF8D7
:101A50000000C00514D4DBF8000040F48070CBF81F
:101A60000000FFF791FD074606E0FFF78DFDC01B64
:101A7000642801D903200CE7DBF80000C005F4D589
:101A8000E068012812D0B0B105281DD0286A20F0E6
:101A900001002862286A20F004002862E06841F210
:101AA000883B28B3FFF770FD07461DE0286A40F029
:101AB00001002862F2E7286A20F001002862286A03
:101AC00020F004002862E9E7286A40F00400286258
:101AD000286A40F001002862E0E7FFF755FDC01BCF
:101AE000584501D90320D4E6286A8007F5D50DE0D2
:101AF000FFF74AFD074606E0FFF746FDC01B5845C5
:101B000001D90320C5E6286A8007F5D4012E03D148
:101B1000E86920F08050E861E069A0B36968C1F32A
:101B20008101022946D0022805D0C8F86090FFF74D
:101B30002BFD04463AE0C8F86090FFF725FD064605
:101B400006E0FFF721FD801B022801D90320A0E653
:101B500028688001F5D4206AB0F5803F05D1686817
:101B6000A16820F4003008436860D4E90801084304
:101B7000696821F4741108436860C8F860A0FFF731
:101B800003FD044607E026E0FFF7FEFC001B0228E9
:101B900001D903207DE628688001F5D51BE0FFF719
:101BA000F3FC001B022801D9032072E6286880019B
:101BB000F5D410E001280CD06868226A00F4803166
:101BC000914204D1616A00F47010884203D0012070
:101BD0005FE601205DE600205BE6000000100240A9
:101BE00000004242800442420070004070B504464A
:101BF000002C09D0606A002540B125616561A562AD
:101C000094F8510040B10CE0012070BD6068B0F55F
:101C1000827FF4D0E561F2E784F85050204600F06E
:101C20003FF8022084F851002068016821F040014B
:101C30000160A088218900F4827001F40441084306
:101C4000A18901F400610843217C01F002010843ED
:101C5000217D01F001010843218B01F4007108434B
:101C6000217F01F03801084394F8201001F0800131
:101C70000843218D01F40051084321680860A069E0
:101C8000042101EA1040216848602068C16921F4FC
:101C90000061C1616565012084F85100002070BDBC
:101CA00030B585B000240194029403940494006834
:101CB0001449884223D11448816941F480518161DB
:101CC000816901F480510091816941F004018161D1
:101CD000806900F004000090A02001900220029092
:101CE00003200490094D01A92846FFF747FB402136
:101CF00001910294039401A92846FFF73FFB05B028
:101D000030BD0000003001400010024000080140DA
:101D10002DE9F84F04468A4617461D46FFF734FC66
:101D2000064694F85100012802D00220BDE8F88F41
:101D3000BAF1000F23D0380021D094F850000128C8
:101D40001FD04FF0010984F85090032084F851000F
:101D50004FF00008C4F85480C4F830A0A786E78686
:101D6000C4F83880A4F83C80A4F83E80C4F84480CD
:101D7000C4F84080A068B0F5004F04D00DE0012009
:101D8000D4E70220D2E72068016821F04001016019
:101D90002068016841F480410160206801684906BB
:101DA00003D4016841F040010160E068B0F5006FC4
:101DB00004D0606888B3012F30D050E0606808B16B
:101DC000012F20D1206B21680088C860206B801C07
:101DD0002063E08E401EE08615E020688168890758
:101DE00009D5216B0988C160206B801C2063E08EBF
:101DF000401EE08607E0FFF7C7FB801BA84201D327
:101E0000681C04D11DB1E08E0028E6D12AE084F8D8
:101E1000519084F85080032088E7FFE7206B216809
:101E200000780873206B401C2063E08E401EE08623
:101E300015E020688168890709D5216B097801734D
:101E4000206B401C2063E08E401EE08607E0FFF719
:101E50009BFB801BA84201D3681C0ED16DB1E08EA4
:101E60000028E6D132462946204600F0D5F808B1D0
:101E700020206065A06830B109E084F8519084F8B2
:101E80005080032052E72068C1688068009084F881
:101E9000519084F85080606D08B1012046E7002021
:101EA00044E710B5401EB0F1807F01D3012010BD82
:101EB0004FF0E02460610F21601700F075F90020F9
:101EC000A06107202061002010BDFEE7F0B585B0BD
:101ED000002401940294039404942F48816941F0F2
:101EE00010018161816901F010010091816941F067
:101EF00020018161816901F020010091816941F037
:101F000004018161816901F004010091816941F05E
:101F100008018161806900F0080000901F4F0022D5
:101F20000C213846FFF729FB0C200190012002907C
:101F300003940225049501A93846FFF71FFAA80368
:101F40000190174E0296039401A91648FFF716FA5E
:101F50004FF4407001900296039401A93846FFF7B0
:101F60000DFA002211461720FFF77CFB1720FFF720
:101F70006BFB002211462820FFF774FB2820FFF797
:101F800063FBA020019002950320049001A938462C
:101F9000FFF7F4F905B0F0BD001002400008014061
:101FA00000001110000C014010B50F480D490160F0
:101FB0004FF48271416000218160C16002220261A0
:101FC00001224261520282613022C2610162416299
:101FD00081620721C162FFF709FE002801D0FFF7E7
:101FE00082F910BD003001405C030020FEE7FEE7EF
:101FF0007047000008B507494FF4FA520968B1FB71
:10200000F2F14143009100BF0098411E0091FAD2C5
:1020100008BD000014000020F8B504460E46154621
:102020003346012202212046009500F017F828B11E
:10203000606D40F0200060650320F8BD334600224B
:1020400080212046009500F009F828B1606D40F02D
:10205000200060650320F8BD0020F8BD2DE9F8439D
:1020600004460F4691461E46089DFFF78DFA401B19
:10207000351AFFF789FA804626480068C0F3CB304E
:10208000684300903AE0701C38D0FFF77DFAA0EB6F
:102090000800A84203D215B1009858B32BE020687D
:1020A000416821F0E00141606068B0F5827F0BD1AA
:1020B000A068B0F5004F02D0B0F5806F04D1206861
:1020C000016821F040010160A06AB0F5005F09D10C
:1020D0002068016821F4005101602068016841F422
:1020E00000510160012050346070002020700320F6
:1020F000BDE8F88300250098401E009020688068A5
:1021000037EA000004D000204845BCD10020EFE7AA
:102110000120F9E7140000207047FFF73BBA30B503
:102120008FB0282105A8FEF738F914216846FEF77C
:1021300034F90121059108040690002407940991BF
:1021400002250C950D904FF4E0100E9005A8FFF7B6
:102150008BFB08B1FFF7C7F80F20009001950294A0
:102160004FF480600390049402216846FFF7ACFAB4
:10217000002801D0FFF7B7F80FB030BD7047FEE779
:10218000490050EAC12018BF04204A0D18BF40F092
:10219000010040F2FF72B2EB515F08BF40F0020055
:1021A000012808BF052070470907090E002804DB35
:1021B00000F1E02080F80014704700F00F0000F1FB
:1021C000E02080F8141D704730380A2801D2012021
:1021D00070470020704700002DE9F0478CB0824620
:1021E000FFF7D2F9504600F065FCDF49504600F099
:1021F000A1FD0121504600F09AFDFFF7C5F9DFF877
:102200006C83D8F81810401AC8281AD398F802001E
:1022100008B1012001E04FF0FF30D8F81410084455
:10222000C8F81400082803DB002088F8020004E046
:10223000002802DC012088F80200FFF7A5F9C8F8A1
:102240001800D8F81400C94900EB8000453101EBB3
:1022500080000A21CDE900100B4636227621504637
:1022600000F01AFDC2490B20CDE900010F23002226
:102270007121504600F010FDDFF8F892D8F80C00FC
:102280000C2409F154070525A7F2CD16012802D028
:1022900002287AD062E1B8A308220321504600F058
:1022A000F3FCD8F8380001F0EDFD02460B46B4A16E
:1022B00007A8FDF7B5FF07AB14220521504600F033
:1022C000E3FCD8F83C0001F0DDFD02460B46B1A16D
:1022D00002A8FDF7A5FF02AB20220521504600F021
:1022E000D3FCB1A32E220321504600F0CDFCD8F838
:1022F000080098B1AEA32E222121504600F0C4FC64
:10230000ADA33C220321504600F0BEFCD8F80400E7
:1023100058B1012814D0022838D01FE1AAA32E22D8
:102320002121504600F0B0FCEAE792487E23C038F5
:10233000CDE900400B220221504600F0ADFC0DE13A
:10234000D8F8080080B1CDE90047552325220021A7
:10235000504600F0A1FCCDE9005607232822562163
:10236000504600F099FCF9E0CDE9004937232522D9
:102370000021504600F090FCCDE9005607232822AA
:102380003821504600F088FCE8E010E0CDE9004735
:10239000552333220021504600F07EFCCDE9005643
:1023A000072336225621504600F076FCD6E087A35C
:1023B0003C220321504600F067FCD8F83C0001F0B5
:1023C00061FD02460B4683A107A8FDF729FF07AB75
:1023D00015220321504600F057FCD8F8380001F0D0
:1023E00051FD02460B467FA102A8FDF719FF02AB83
:1023F00009220321504600F047FC7EA3222203213C
:10240000504600F041FC80A32F220321504600F0EB
:102410003BFCD8F80400022809D0012818D000B3EA
:1024200053499C39032825D0042834D03BE0CDE91A
:102430000049372333220021504600F02DFCCDE91E
:102440000056072336223821504600F025FC2AE0AA
:10245000CDE9004755230C220021504600F01CFC1A
:1024600021E0CDE90047002255231146504600F0F7
:1024700013FC18E0CDE900416123192200215046E8
:1024800000F00AFCCDE9005607231C2262215046C9
:1024900000F002FC07E0CDE9004161232622002183
:1024A000504600F0F9FB98F80000D8F804104FF4FB
:1024B0007A7401434FF4AF6710D018B3FFF764F894
:1024C000D8F81C10401AA04211D8CDE900560723B5
:1024D00003225621504600F0DFFB13E0CDE9005601
:1024E000072303225621504600F0D6FB0AE0FFF7EF
:1024F0004BF8D8F81C10401AB84203D3FFF744F841
:10250000C8F81C0098F8010018B9D8F8041001297F
:1025100010D018B3FFF738F8D8F81C10401AA042B2
:1025200011D8CDE90056072315225621504600F058
:10253000B3FB13E0CDE90056072315225621504680
:1025400000F0AAFB0AE0FFF71FF8D8F81C10401AA9
:10255000B84203D3FFF718F8C8F81C000CB0504677
:10256000BDE8F04700F0D9BB963F000818000020F6
:1025700045030020D101002056617A616F00000000
:102580004163756D756C6164613A20252E31664C2E
:1025900000000000496E7374616E742E3A20252E7F
:1025A00031664C2F730000004761733A2000000031
:1025B0004172676F6E696F00436F6E66696775720F
:1025C00061636F6573000000434F3200566F6C7497
:1025D000617200004D696E696D6F3A20252E31667B
:1025E000000000004D6178696D6F3A20252E31663C
:1025F000000000005265736574617220636F6E663F
:102600006967732E0000000053616C76617220636D
:102610006F6E666967757261636F657300000000B5
:102620002DE9F05F814688461746F54E01244FF0AC
:10263000000BF068012802D0022854D0D4E1B9F18F
:10264000000F0BD0FEF7A0FF316A401A642805D3B3
:102650007068401E7060FEF797FF30625FB1FEF752
:1026600093FF716A401A642805D37068401C70603B
:10267000FEF78AFF7062B8F1000F18D0FEF784FFF2
:10268000B16A401A642812D37068012803D1B16876
:1026900021B1C6F808B0022802D005E0B460FAE71C
:1026A0000220F060C6F804B0FEF76EFFB0627068FA
:1026B0000028C3D1B8F1000F12D0706B60B1FEF7E3
:1026C00063FF716B401A40F2DC518842B6D3C6F802
:1026D00010B0C6F834B087E1FEF756FF706383E1AF
:1026E000C6F834B080E1C6F834B0B9F1000F0FD0AD
:1026F000FEF74AFF316A401A642809D3707838B966
:10270000307828B97068401E7060FEF73DFF306277
:102710007FB1FEF739FF716A401A642809D37078D7
:1027200038B9307828B97068401C7060FEF72CFF0B
:1027300070627068022805D1B8F1000F02D0F46011
:10274000C6F804B0706870B9B8F1000F09D0B06A6B
:1027500048B9307880F001003070FEF715FFB062A4
:1027600001E0C6F828B030784FF4FA7A002837D064
:10277000B9F1000F3AD0B06BA249884236DC306A1A
:1027800078B3FEF701FF316A401A50450CD3B06BA5
:102790009D49884208DC01F075FB00229B4B01F04B
:1027A0000DF901F0D9F8B063FEF7EEFEF16A401AB8
:1027B000642812D3FEF7E8FE316A401A50450CD265
:1027C000B06B01F05FFB924A924B01F0F7F801F019
:1027D000C3F8B063FEF7D8FEF062FEF7D5FEF062F4
:1027E00053E0FFE7FEF7D0FE3062DDE7F7B3F06BB2
:1027F00001F048FB884A894B01F0E0F804460D4699
:10280000B06B01F03FFB22462B4601F01BFA38D299
:10281000706A60B3FEF7B8FE716A401A50450CD377
:10282000B06B7F49884208DD01F02CFB0022774B1A
:1028300001F03EFA01F090F8B063FEF7A5FEF16AF0
:10284000401A642815D3FEF79FFE716A401A50455E
:102850000FD2B06B01F016FB6D4A6E4B01F028FAF7
:1028600001F07AF8B063FEF78FFE01E009E004E0C2
:10287000F062FEF789FEF06207E0FEF785FE706207
:10288000DBE7C6F820B0C6F824B0706801280ED186
:10289000B8F1000F09D0B06A48B9707880F0010033
:1028A0007070FEF771FEB06201E0C6F828B0707873
:1028B000002852D0B9F1000F55D0B06B01F0E2FA08
:1028C000554A564B01F0F4F904460D46F06B01F001
:1028D000D9FA22462B4601F025F944D2306AE8B3F2
:1028E000FEF752FE316A401A50451AD3B06B01F020
:1028F000C9FA4C4A4C4B01F0DBF904460D46F06B2B
:1029000001F0C0FA22462B4601F00CF909D2F06B17
:1029100001F0B8FA00223D4B01F050F801F01CF82C
:10292000F063FEF731FE316B401A642812D3FEF7D4
:102930002BFE316A401A50450CD2F06B01F0A2FA1E
:10294000334A344B01F03AF801F006F8F063FEF731
:102950001BFE3063FEF718FE306345E0FFE7FEF72D
:1029600013FE3062DDE7AFB3F06B3049884237DDEC
:10297000706A80B3FEF708FE716A401A50450CD3A6
:10298000F06B2749884208DD01F07CFA00221F4BDA
:1029900001F08EF900F0E0FFF063FEF7F5FD316B1A
:1029A000401A642812D3FEF7EFFD716A401A5045B1
:1029B0000CD2F06B01F066FA154A164B01F078F96B
:1029C00000F0CAFFF063FEF7DFFD3063FEF7DCFDC9
:1029D000306309E004E0FFE7FEF7D6FD7062DCE754
:1029E000C6F820B0C6F824B07068042803DBC6F827
:1029F00004B0BDE8F09F0028FBDA02207060F8E721
:102A0000180000200AD71F410AD717410000E03FF5
:102A10009A9999999999B93F7B14AE47E17A843F85
:102A20005C8F023F52B81E85EB51E03F8FC2753D6F
:102A3000FEF7B8FDFFF773FBFFF748FAFFF7B4FAAC
:102A4000164B174A1749184800F0BAF9164800F013
:102A50006DFD0021144800F079FD144C0022042182
:102A60002046FEF78AFD6420FEF740FC0122042187
:102A70002046FEF782FD6420FEF738FC0C4CA2785D
:102A800061782078FFF7CCFDFEF77EFD6168401A83
:102A9000C828F4D30448FFF79FFBF0E7E3320008AF
:102AA000C93500086C430008B40300200008014049
:102AB000000000200168097C90F838204A43D100CA
:102AC000406BFDF748BC2DE9F04104460D46164623
:102AD0001F4694F87000002806D001280AD002286A
:102AE0000ED0032817D111E0E16D2046884730440D
:102AF00086B210E0E16D20468847281A85B20AE0C8
:102B0000E16D20468847301A86B204E0E16D204628
:102B10008847284485B23B46324629462046BDE8D0
:102B2000F04100F068BB3FB581B00446089994F8C5
:102B30008C00002837D0BDF81000002833D00128C1
:102B40000FD9022902D0032906D00AE0BDF80820D7
:102B5000101A401C029004E0BDF80C20101A401C12
:102B6000039001F0010505B3B4F84810BDF8080062
:102B7000814218D8B4F84A10814214D9B4F84E30C2
:102B8000B4F84C2004A903A800F0BCF900280AD02E
:102B90000095206BBDF81030BDF80C208568BDF89D
:102BA00008102046A84705B030BDB4F84C10BDF859
:102BB0000C008142F7D8B4F84E108142F3D9B4F832
:102BC0004A30B4F8482004A902A800F09BF9002874
:102BD000DED1E8E72DE9FF4F81B080460E9D0F461C
:102BE0001E4698F89290B9F1000F12D04FF0000AEB
:102BF00003983946401C80B20090B81983B2404611
:102C0000039A00F073F800283BD001244FF0000B2A
:102C100033E04FF0010AEBE72878204000230AE078
:102C20005B1C9BB27F1CBFB261060C0E0CB9012469
:102C30006D1C761EB6B21EB170B129782142EFD15B
:102C400070B188F89290F81A81B2CDF800B0404681
:102C5000039AFFF768FF10E029782142E0D0EFE700
:102C600098F8910048B988F892A0F81A81B2CDF886
:102C700000B04046039AFFF756FF002ECCD188F8EB
:102C8000929005B0BDE8F08F30B4024C446030BC87
:102C900000F067B9B93500082DE9F84F8246DDE943
:102CA0000A4589461646984608F1070080B2C708CB
:102CB000301980B2009009EB080083B232464946D1
:102CC000504600F013F800280ED00BE04346324681
:102CD000494650460095FFF77DFF3D44761CB6B24D
:102CE000641EA4B2002CF1D1BDE8F88F70B51E4669
:102CF000049B04460D46B4F84E10B4F84C0000F0A6
:102D0000F2FA40B148343346618820882A46BDE84B
:102D1000704000F0E8BA002070BD10B504462046AF
:102D200000F09AFB2046BDE8104000F007BC80F898
:102D30009110704710B50446A06D884209D0A16576
:102D400004F1740000F020FB2046BDE8104000F0C4
:102D500055B810BD0149C16570470000D52F000866
:102D600000213030018481844FF6FF714184C18499
:102D700050F830194968084770B504460498002592
:102D8000A565E362616384F8382084F8395084F8DB
:102D90006D5084F8915084F88D50012184F8921080
:102DA00084F8931020630168204688472046FFF787
:102DB000D7FF2046FFF7CEFF84F8705070BD0000AB
:102DC00070B5ADF5BC6D06460D460824009313465C
:102DD000074A0849304600F0C1FB074B224601A9CB
:102DE00030460095FFF7C8FF0DF5BC6D70BD0000C3
:102DF000CD3600083D3800081333000810B5816D4A
:102E0000002918D010F9811F417390F901208273B5
:102E1000037B8138002B0ED0012B0DD090F97E4022
:102E200090F980301C448C4201DD80F88E409A423B
:102E300001DD80F88F3010BD90F98330994201DABE
:102E400080F88E3090F984108A42F4DD80F88F107B
:102E500010BD002B06D0012B07D0022B08D0104448
:102E600080B27047084480B27047801A80B27047C1
:102E7000401A80B27047002B06D0012B07D0022BDE
:102E800008D0401A80B27047104480B2704708449E
:102E900080B27047801A80B2704738B5044650340B
:102EA000E08800906388A28834F850192046FFF724
:102EB0001DFF18B3012084F88C00B4F84810B4F852
:102EC0005000814201D2A4F84800B4F84A10B4F886
:102ED0005200814201D9A4F84A00B4F84C10B4F869
:102EE0005400814201D2A4F84C00B4F84E10B4F85A
:102EF0005600814201D9A4F84E0038BD002084F864
:102F00008C0038BD30B504880D882544ADB2AC4284
:102F100005D99C4202D25D1EADB200E014469C422F
:102F200001D3002030BD954201D8002030BD94422D
:102F300000D214469D4200D91D460480281B0880FB
:102F4000012030BD38B5049CC58F521B92B200944D
:102F5000C46AA04738BD38B5049C0094FFF7F2FF5F
:102F600038BD2DE9F04780460C4615461E464046C2
:102F700000F0D8FC00274FF6FF79D8F8042031780C
:102F80004046904703464B4502D13846BDE8F0879E
:102F9000761CA3F57F40FE38EFD02A4621464046F6
:102FA000FFF791FD98F8703033B1012B07D0022B59
:102FB00008D0032B0BD108E021188CB207E02918A8
:102FC0008DB204E0211A8CB201E0291A8DB2384486
:102FD00087B2D2E70020704710B50C46214600F0BA
:102FE00006F80122641EA240801A40B210BD30B51E
:102FF000047B05682B78E3406218D2B2082A09D313
:10300000C4F108046D1C05602D78A5401D43EBB28A
:10301000083AD2B201248C40641E1C400273204640
:1030200030BD2DE9F843054605F16004284600F05F
:103030003EF915F96B6F2046E97BFFF7CDFF81461E
:10304000297C2046FFF7C8FF8046697C6B3D2046FF
:10305000FFF7C2FF074694F90A00002878DD06EB67
:103060000800404242B2237C9046A0884946FFF7C0
:10307000F0FEA080237C4246E0884946FFF7FBFE35
:10308000E080A18802460B46104694F810C0BCF1BF
:10309000000F09D0BCF1010F0DD0BCF1020F14D00C
:1030A000BCF1030F29D11EE094F90AC063449BB21E
:1030B000304480B221E0891B491C89B25B1C9BB261
:1030C00094F90AC0604480B217E094F90AC0A1EBF9
:1030D0000C01491C89B25B1C9BB2921B521C92B220
:1030E000401C80B209E033449BB294F90AC0A2EBC1
:1030F0000C02521C92B2401C80B200902846FFF78E
:10310000F5FD40B300202072607295F876102046DD
:10311000FFF76DFF804695F877102046FFF767FFB1
:10312000814600224146284600F017F80122494610
:10313000284600F012F801212046FFF758FF00282A
:10314000EFD194F90900B042DFDBA07B85F8920053
:103150003846BDE8F8833846FBE72DE9F74F84B0E1
:1031600081460D4609F1600494F80880677AA07AD8
:10317000A0EB0800C6B2B246B54200D2AA46A0886B
:10318000E1880191237C7AB24FFA88F1934603914A
:10319000FFF75FFE0290237C5A4603990198FFF7E0
:1031A0006AFE0246069850B1A07B89F89200207C06
:1031B0000090534648460299FFF7B5FC0BE0607B50
:1031C00048B9E07B89F89200207C0090534648463D
:1031D0000299FFF7A8FCB54206D208EB0500207261
:1031E000677207B0BDE8F08FA81BC5B24FF00008AA
:1031F0007F1CFFB2BBE770B504460025A4F864103D
:10320000A4F866201946204600F00BF8014619B1D3
:103210002046FFF706FF85B2284670BD08440078B7
:10322000704770B502460D46906D1730FF2D13D8CC
:10323000612D03D3B2F88810084404E0412D02D375
:10324000B2F886100844417829B30278AA4201D125
:10325000801C70BD0844F6E7B2F88A100C182646A8
:103260000021304600F019F804440221304600F0F5
:1032700014F8361DA842F3D34FF6FF72207802EA05
:1032800000216078084330B1A84201D1E01C70BD34
:10329000A0780444F2E7002070BD084401784FF69E
:1032A000FF7202EA01214078084480B2704730B5CD
:1032B000054605F1600421600020207315F8781F91
:1032C0002046FFF794FEA07269782046FFF78FFE34
:1032D000E072A87EA07310B10020E07330BD012021
:1032E000FBE7012070478A4209D2834201D90120BD
:1032F00070479A4201D901207047002070478342ED
:1033000005D99A4201D9012070470020704700205A
:103310007047F0B5059F0468257C01F007068024FE
:10332000F4406A4302EBD10189B2426B1144002F91
:1033300016D190F89220012A02D80A7822430A7006
:1033400090F89220012A02D00A7862400A7064083C
:103350000CB98024491C5B1E9BB2002BE9D1F0BD47
:1033600090F89220012A02D80A7822430A7090F835
:103370009220012A02D00A7862400A7029445B1E1A
:103380009BB2002BECD1F0BD70B504460D46002178
:103390002846FFF743FF207001212846FFF73EFF34
:1033A000607002212846FFF739FFA07003212846EC
:1033B000FFF734FFE07004212846FFF72FFF20714C
:1033C00005212846FFF72AFF607106212846FFF7EE
:1033D00025FFA07107212846FFF720FFE071082193
:1033E0002846FFF71BFF207209212846FFF716FF2A
:1033F00060720A212846FFF711FFA0720B212846B0
:10340000FFF70CFFE0720C212846FFF707FF20733F
:103410000D212846FFF702FF60730E212846FFF7B3
:10342000FDFEA0730F212846FFF7F8FEE073102180
:103430002846FFF7F3FE207411212846FFF72DFFE1
:10344000608213212846FFF728FFA0821521284615
:10345000FFF723FFE08270BD2DE9F041074600240D
:1034600097F8386097F83950386890F811802A46F4
:103470002146384600F00AF8641CE4B26D1CEDB237
:10348000B44201D24545F2D3BDE8F08138B50368B6
:103490001B7C446B594389B24FF6FF7505EAC101A5
:1034A00021440091002100F032F838BDF0B50168E8
:1034B00090F838204FF6FF7606EAC20383870B7C2C
:1034C00006EAC303438790F8393006EAC304C48789
:1034D0004D7C9F18AF4201D9EA1A92B206EAC202A5
:1034E00020F8404F224442808A8A8280C98AC18063
:1034F000F0BDFFF7DBBF00214030018181884181B1
:10350000018881814188C1814038FFF7C6BC1CB564
:10351000049C8DF805108DF806208DF80430009479
:10352000012284686B460F21A0471CBD30B484681B
:103530000023A44630BC1A460A21604730B4846890
:103540000023A44630BC1A461021604730B484687A
:103550000023A4460A4630BC0B2160472DE9F04108
:103560000446069F0D461646204600F009F8A56061
:10357000E660236167612046BDE8F04100F014B8C1
:103580000021083040F8081C064A02604260826050
:10359000C260C17681770161FF21017780F8201038
:1035A000704700001539000830B484680023A44631
:1035B00030BC1A46092160470846002801D00A2875
:1035C00001D14FF6FF70704710B51846172906D085
:1035D0000C48182909D019290DD0002010BD01462A
:1035E00064230948FEF794FB0AE001220821FDF755
:1035F000C4FF00BF04E000BF00220821FDF7BDFFAB
:10360000012010BD000801405C03002013B501AA91
:10361000012100F001F81CBD30B404691346A44632
:103620000A4630BC1721604730B4C4680023A44662
:1036300030BC1A461921604730B4C4680023A44640
:103640000A4630BC1521604730B4C4681346A4460E
:103650000A4630BC17216047F8B505460C4614F8F9
:10366000011B182923D00EDC152918D0162916D0D5
:10367000172922D1207800906A4601212846FFF7B9
:10368000E3FF641CEBE7192911D0FE2915D122783C
:1036900000922921284600F03FF9641CDFE72278D8
:1036A0000092EE6800232846B047641CD7E7002349
:1036B000EE681A462846B047D1E7F8BD30B4C46872
:1036C0000023A44630BC1A46182160472DE9F0417A
:1036D000074615461C46A1F114002E0105F0F0081E
:1036E000062870D2DFE800F066031F2C6666F8211A
:1036F0003846FFF78BFF01222C21384600F00CF9E9
:1037000041463846FFF782FF01222C21384600F05F
:1037100003F9F1B23846FFF779FF01222C21384630
:1037200000F0FAF843E0F8213846FFF76FFF414612
:103730003846FFF76BFFF1B23846FFF767FF36E018
:10374000FA213846FFF762FF01222C21384600F0AB
:10375000E3F814E008221D4914F8013B03F0F000DF
:10376000087018014870891C521ED2B2002AF3D189
:10377000083DEDB2154A10213846FFF74DFF082DE0
:10378000E8D20DE02678384606F0F001FFF73EFF5C
:103790003007010E3846FFF739FF641C6D1EEDB28D
:1037A000002DEFD101222C21384600F0B5F8012080
:1037B000BDE8F0813E6923462A463846B446BDE856
:1037C000F0416047FFE70020F2E7000048040020D6
:1037D00070B50446002365691A4628212046A8478B
:1037E0000023E5681A4614212046A84701224B21F0
:1037F000204600F091F8206829210279204600F047
:103800008BF800224B21204600F086F82068292101
:103810000279204600F080F801224B21204600F07A
:103820007BF82068292142792046BDE8704000F0ED
:1038300073B80160897C80F82210704710B509299F
:1038400003D0BDE8104000F007B80249FFF7F1FFD0
:10385000012010BD004400082DE9F04781461E46B6
:103860000A2906D00B290CD00F2917D00020BDE85B
:10387000F0874846FFF7ACFF25494846FFF7ECFEC6
:1038800043E02AB1224948461331FFF7E5FE3CE008
:103890001F494846C91FFFF7DFFE36E0B079C00672
:1038A000050E70794FEA5008202D05D3203DEDB26A
:1038B00008F1080808F0FF084846FFF7FFFE3768E0
:1038C0003E214846FFF7B8FE3E214846FFF7B4FECA
:1038D000002448F0800A2819C0B240F08001484610
:1038E000FFF7AAFE51464846FFF7A6FE96F8048069
:1038F0003A4641464846FFF7A7FE4744641CE4B2F7
:10390000082CE8D34846FFF78FFE0120AFE7000000
:103910007F4300080020704730B444690023A44668
:1039200030BC6047002180F82610704710B5002990
:103930000AD00878002807D005487844FDF7B2F887
:10394000002801D0002010BD0248784410BD0000BE
:10395000AA0B0000A20B000021F00042A2F160526D
:10396000B2F5801F01F0004328BFD2F17F6C0BD964
:103970005FEA001C43EAC20242EB507018BF704776
:1039800028BF20F001007047B2F5801FBCBF184669
:1039900070474FEA410C1CF5001F02D2084600F0A8
:1039A000E2BA70B500F0FAF800000089FFF7F6BF40
:1039B0004FF00040A0F580007047000010B591EA7C
:1039C000030F48BF83F0004300F17A81841A71EB42
:1039D000030C05D2121943EB0C03001B61EB0C0125
:1039E000DFF824E14FEA1154A4EB135C1EEA430F05
:1039F00018BF9EEA445F73D023EA0E03DCF1200E69
:103A000021EA045143F4801332D322FA0CFE10EB66
:103A10000E0023FA0CFE41EB0E01CCF1200E03FA4E
:103A20000EFE10EB0E0051F10001B1F5801FCCF13C
:103A3000200E32D201EB045112FA0EF2BDE8104012
:103A400058BF7047401C38BF5FEA420218BF70473A
:103A5000002814BF20F0010041F100014FEA4103AA
:103A600013F5001F38BF7047A1F1C04100F0E4B862
:103A7000012A43EB0302ACF1200CDCF11F0E32BF34
:103A80004FF0000E23FA0CF310EB030041EB04514E
:103A9000B4EB115FD0D0A1EB045101F580114908BE
:103AA0005FEA300001EB04510ED350F1000038BF43
:103AB00012FA0EFE08D1BDE81040C9E7401C38BF1D
:103AC0005FEA4202CAD1C3E7BDE810404FEA4103B2
:103AD00013F5001F38BF7047A1F1C04100F0ACB82A
:103AE0009EEA445F08D011EA5E0FBDE8104004BFB3
:103AF00001F0004100207047BDE8104070B500F0B3
:103B00004DF800BF64FBBE3E0000E0FF491058BF07
:103B1000C1F140415B1058BFC3F140438B42EFF30A
:103B20000080704751EA030C17D41CF5801F58BF62
:103B3000BCF5801F00F10680994218BF704708BF8E
:103B40009042704707D711F5801F58BF13F5801FAB
:103B500019D499427047894270471CF5801F08D5D7
:103B6000BCF5801FF7D58B4218BF704708BF824253
:103B700070474FF4001C1CEB410F38BF1CEB430F88
:103B800001D28B42704770B500F008F892244900CA
:103B90004FF000514FF08053FFF7B8BF0EF1020E07
:103BA0002EF0030E5EF8046B364205D4012A43EB77
:103BB000030515F5001F12D8012841EB010C1CF577
:103BC000001F0CD80ED14FEAD17C15F5001F0CEB6D
:103BD0004C0C0CF1020C08BF4CEBD37C04E04FF012
:103BE000080C01E04FEAD37C0CEB4C0526FA05F6F5
:103BF00006F00706B6F1040C06D20EEB860CBDE803
:103C000070404CF0010C6047DFE80CF0090B020239
:103C10004FF000414FF00000A1F5002170BD1946A2
:103C20001046012851EB010418BFD4F5001484BFDD
:103C3000002001F0004170BD0808A0F500114FEA16
:103C40003101704753EA010C17D41CF5801F58BF8F
:103C5000BCF5801F00F106808B4218BF704708BF7B
:103C60008242704707D713F5801F58BF11F5801F98
:103C700019D48B4270479B4270471CF5801F08D5B2
:103C8000BCF5801FF7D5994218BF704708BF904216
:103C900070474FF4001C1CEB430F38BF1CEB410F67
:103CA00001D2994270470FB40CBC03BCFFF76BBF45
:103CB00010B591EA030F48BF83F000433FF586AE8D
:103CC000841A71EB030C07D212198CF0004C43EBF1
:103CD0000C03001B61EB0C01DFF8A4E14FEA115467
:103CE000A4EB135C1EEA430F18BF9EEA445F00F08A
:103CF000B08023EA6E03524221EA0451C3EB6E0303
:103D000038BF5B1EDCF1200E25D322FA0CFE10EB2F
:103D10000E0043FA0CFE41EB0E01CCF1200E03FA2B
:103D20000EFE10EB0E0051F10001CCF1200E29D453
:103D300012FA0EF201EB0451BDE8104058BF704773
:103D4000401C1CBFB2F1004F704700280CBF491C3B
:103D500020F00100704712EB020E43EB030218BF84
:103D60004FF0010E4EEA4202ACF1200CDCF11E0EC7
:103D700054D943FA0CFE10EB0E0051F1FF31CCF197
:103D80001E0ED5D50EF1010E12FA0EFE404141EB8A
:103D9000010101EB445C5FEA5C5C10D910EBDE7062
:103DA00001EB045138BFBEF1004FBDE8104018BF11
:103DB000704700280CBF491C20F00100704730D22A
:103DC0004FEAD42C11F5001124F400641BD0B1FA91
:103DD00081F20B3AA41AA41ED2F12003914030FACA
:103DE00003F31943904001EBCC71002C01EB04511B
:103DF000BDE81040A8BF704701F1C0414FF000007E
:103E000001F000417047B0FA80F310FA03F100D1DD
:103E100010BDE41A173C4805C90AE4E701EB045158
:103E200010BD491001EB0451BDE810404FEA3000CD
:103E300002E04FF0000170474A0008BF0042F8D08E
:103E4000B2F5001F28BF704701F000414FF000009D
:103E500070479EEA445F07D011EA5E0FBDE810404C
:103E600004BF002100207047BDE8104070B5FFF787
:103E700095FE00BF40DFF63E83F0004110467047DC
:103E80000000E0FF43004FEAD30C4FEA3C0C4340F4
:103E90001FBF40070CF1605113F0FE4F70471CF03C
:103EA000006F03D100200CF0004170470CF000437C
:103EB00043EA507010B540EACC0000F00EF800BFA5
:103EC000000000924FEA0001FFF7B6BE4FF000413C
:103ED0004FF00000A1F5002170470EF1020E2EF008
:103EE000030E5EF8044B244204D44FEA4102B2F1BF
:103EF0007F4F11D84FEA4003B3F17F4F0CD80ED15A
:103F00004FEAD07CB2F17F4F0CEB4C0C0CF1020C61
:103F100008BF4CEBD17C04E04FF0080C01E04FEA05
:103F2000D17C0CEB4C0324FA03F404F00704B4F145
:103F3000040C06D20EEB840CBDE810404CF0010CD2
:103F40006047DFE80CF0070802024FF00040A0F5E0
:103F5000800010BD0846420018BFD2F1807288BFB1
:103F600000F0004010BDFF2141EAD050C00570476D
:103F7000FCF716BB010202030405060708090A0B39
:103F80000C0D0E0F101000000000000000000102D8
:103F90000304060708095F00030203040305040580
:103FA0000A00FE07FE07000142028803B620050052
:103FB000620721073943C7A00422079B52476209C1
:103FC000230E3D424F294906A53228A52401240C81
:103FD0003D4257B6D4B624D92200250C3D424FA409
:103FE00074ABB4480900260D3D424F9644495649EA
:103FF000A4480927061953C7002808BB425752AAEC
:10400000152909BB424756AA94002A0A2D4647960D
:104010005406A52D2B0A2D4657180D5218012C07B2
:104020009B3E8F52022D060D4EC7202E089B3E4F01
:10403000B224002F083D4267AD6308300B3D425764
:1040400096D46C492D02310A3D4257262561D32072
:10405000320C3D42CF92859194858300330C3D42D2
:10406000C7206699AA250B00340C3D425F2625A582
:1040700064D0C204350B3D42C73131855AB2003697
:104080000C3D4297948589494B1600370B3D42C73A
:1040900020666156CC00380C3D42CF9269C99269C6
:1040A000C902390C3D42CF92498A126691043A0AFC
:1040B000BB3E4FB2A4C992003B09BB3E4FB2A44ADB
:1040C000093C08BC425FD4D8003D081D4AC7A00E79
:1040D000023E08BC4247D8D4063F0A3D42CF923543
:1040E000E65004400C3D42CF92494B6249170041D3
:1040F0000C3D425796D4B461C8B400420D3D42C74E
:104100001055A264AA448302430A3D42CF92896DAE
:10411000C902440F3D42C71055A2244AA2241A14D2
:1041200000450B3D42C7311C92301C04460A3D42FB
:10413000C7311C92B008470B3D42CF9289A52D593B
:1041400000480A3D4247661B86CC164908BB42C759
:104150001275194A0A3D42D716B64491044B0D3DDB
:1041600042472625252D892A59004C083D4247D82B
:10417000E3204D0B3D4247A62D4BA2D9024E0C3DEC
:104180004247A64D4A226D5A004F0A3D42CF9279CE
:104190004B1600500C3D42C79064DAA08445005194
:1041A0000A453ECF9279A9AC01520D3D42C79064B9
:1041B000DAA0942A5900530B3D42CF92A9AB962C1A
:1041C0000054093D42C720853D0155093D4247E65F
:1041D0005BB200560D3D4247664B4A49946411005C
:1041E000570A3D4247E69228C92D580B3D4247A643
:1041F00025B54A4D0B590A3D4247A625B5B0095A87
:104200000A3D42C720661D07015B08BB42C7107507
:104210001A5C083D424798760C5D08BB42C7D469DA
:10422000085E081D525796D4025F060D3EC72060F7
:1042300006125B4714610A2D42CF9A0C5A3204626F
:104240000B3D424758316993A200630A2D42CF9239
:104250008959B200640A3D4267C5B4498A12650AA9
:104260002D42CF920D43BA00660B3D429754C9864A
:1042700028AC01670C3D3ACFA069C9106AC9026831
:104280000A3D4247583169B6006908BB424F28B51C
:104290000C6A0BCC3A5FACD5242951006B0B3D4224
:1042A00047589392A992056C08BB4287D4CB006D06
:1042B0000B2D4287D2A2244AA2056E092D424762E5
:1042C000D26C016F092D42CF92D99205700C3D3A04
:1042D0004762D22645094300710A3D3A8F6993141B
:1042E000252C72092D424762128B0073092D42CF93
:1042F000921E1400740C3D424F980D51588A1400C0
:1043000075092D4247E6A42801760B2D4247A625C4
:10431000A5248B00770A2D42476649942E00780A1F
:104320002D424796D42AB500790C3D3A47665294FF
:10433000504B16007A092D42C7A0B50D027B0ABC6E
:104340004297122662140A7C063943C7217D0BBCB2
:10435000428718854A9848007E091D524FA424526E
:104360000200000004FFFF0000000000F33400081A
:10437000F7340008572F0008181538150C19FFFEE0
:104380006418FE0A15381508150615021501FE0AEF
:1043900019FF18153815081534150119FF0000000C
:1043A000010005050106148C40420F0003041E287D
:1043B0001004000080002000010005050106148C97
:1043C00040420F0003041E28120400009000200049
:1043D000010005050106148C40420F0003041E284D
:1043E00014040000A0002000010005050106148C43
:1043F00040420F0003041E2818040000C0002000E3
:10440000010005050106148C40420F0001041E281E
:104410001008000080004000010005050106148C12
:1044200040420F0003041E28200400000001200069
:1044300002400000000000A0000000000540000055
:10444000000000C8000000000C4000000000409C7C
:1044500000000000194000000020BCBE0000000069
:1044600034400000BFC91B8E00000004B5400000AE
:10447000504BCFD06607E2CF010000006C41000036
:104480003E8251AADFEEA73401000000D9420000AD
:10449000DCB5A0E23A301F97FFFFFFFFB4450000F4
:1044A000FD25A0C8E9A3C14FFFFFFFFFFF3F0000AC
:1044B0000000008000000000FF3F000000000080BE
:1044C0000000000000450008000000205C03000020
:1044D00028010008B04500085C0300205C070000CC
:1044E000840100081C00000043000000F8FFFFFFEB
:1044F0000C0000000E0000000F0000002E00000065
:1045000081320182105B127A12891C8BB8821001F1
:1045100024170C067F060C7812844D02010102025A
:10452000140201841A7802C914FAFC14FAFE14EB7E
:10453000FF0314EBFF03142912C9144912A914FA3A
:10454000FE14FAFC14BBFCFF01E30F02E310010AA6
:104550006E3010CAFEA0EA1FB049104A1FB74A20A9
:104560003E0A2F600749665A3F4D89644A07584101
:104570008A089A0A4B180B89E259CD397999E812C1
:104580007F8986111280893B110B5980010D899812
:1045900013FFFFB98F1017E003F00778083F712170
:1045A000436146C144877C080EF007E00300000029
:04000005080000ED02
:00000001FF
